{
  "_format": "hh-sol-artifact-1",
  "contractName": "AIPromptNFT",
  "sourceName": "contracts/NFT.sol",
  "abi": [
    {
      "inputs": [
        {
          "internalType": "string",
          "name": "name",
          "type": "string"
        },
        {
          "internalType": "string",
          "name": "symbol",
          "type": "string"
        },
        {
          "internalType": "address",
          "name": "_feeRecipient",
          "type": "address"
        }
      ],
      "stateMutability": "nonpayable",
      "type": "constructor"
    },
    {
      "inputs": [
        {
          "internalType": "uint256",
          "name": "numerator",
          "type": "uint256"
        },
        {
          "internalType": "uint256",
          "name": "denominator",
          "type": "uint256"
        }
      ],
      "name": "ERC2981InvalidDefaultRoyalty",
      "type": "error"
    },
    {
      "inputs": [
        {
          "internalType": "address",
          "name": "receiver",
          "type": "address"
        }
      ],
      "name": "ERC2981InvalidDefaultRoyaltyReceiver",
      "type": "error"
    },
    {
      "inputs": [
        {
          "internalType": "uint256",
          "name": "tokenId",
          "type": "uint256"
        },
        {
          "internalType": "uint256",
          "name": "numerator",
          "type": "uint256"
        },
        {
          "internalType": "uint256",
          "name": "denominator",
          "type": "uint256"
        }
      ],
      "name": "ERC2981InvalidTokenRoyalty",
      "type": "error"
    },
    {
      "inputs": [
        {
          "internalType": "uint256",
          "name": "tokenId",
          "type": "uint256"
        },
        {
          "internalType": "address",
          "name": "receiver",
          "type": "address"
        }
      ],
      "name": "ERC2981InvalidTokenRoyaltyReceiver",
      "type": "error"
    },
    {
      "inputs": [
        {
          "internalType": "address",
          "name": "sender",
          "type": "address"
        },
        {
          "internalType": "uint256",
          "name": "tokenId",
          "type": "uint256"
        },
        {
          "internalType": "address",
          "name": "owner",
          "type": "address"
        }
      ],
      "name": "ERC721IncorrectOwner",
      "type": "error"
    },
    {
      "inputs": [
        {
          "internalType": "address",
          "name": "operator",
          "type": "address"
        },
        {
          "internalType": "uint256",
          "name": "tokenId",
          "type": "uint256"
        }
      ],
      "name": "ERC721InsufficientApproval",
      "type": "error"
    },
    {
      "inputs": [
        {
          "internalType": "address",
          "name": "approver",
          "type": "address"
        }
      ],
      "name": "ERC721InvalidApprover",
      "type": "error"
    },
    {
      "inputs": [
        {
          "internalType": "address",
          "name": "operator",
          "type": "address"
        }
      ],
      "name": "ERC721InvalidOperator",
      "type": "error"
    },
    {
      "inputs": [
        {
          "internalType": "address",
          "name": "owner",
          "type": "address"
        }
      ],
      "name": "ERC721InvalidOwner",
      "type": "error"
    },
    {
      "inputs": [
        {
          "internalType": "address",
          "name": "receiver",
          "type": "address"
        }
      ],
      "name": "ERC721InvalidReceiver",
      "type": "error"
    },
    {
      "inputs": [
        {
          "internalType": "address",
          "name": "sender",
          "type": "address"
        }
      ],
      "name": "ERC721InvalidSender",
      "type": "error"
    },
    {
      "inputs": [
        {
          "internalType": "uint256",
          "name": "tokenId",
          "type": "uint256"
        }
      ],
      "name": "ERC721NonexistentToken",
      "type": "error"
    },
    {
      "inputs": [],
      "name": "EnforcedPause",
      "type": "error"
    },
    {
      "inputs": [],
      "name": "ExpectedPause",
      "type": "error"
    },
    {
      "inputs": [
        {
          "internalType": "address",
          "name": "owner",
          "type": "address"
        }
      ],
      "name": "OwnableInvalidOwner",
      "type": "error"
    },
    {
      "inputs": [
        {
          "internalType": "address",
          "name": "account",
          "type": "address"
        }
      ],
      "name": "OwnableUnauthorizedAccount",
      "type": "error"
    },
    {
      "inputs": [],
      "name": "ReentrancyGuardReentrantCall",
      "type": "error"
    },
    {
      "anonymous": false,
      "inputs": [
        {
          "indexed": true,
          "internalType": "address",
          "name": "owner",
          "type": "address"
        },
        {
          "indexed": true,
          "internalType": "address",
          "name": "approved",
          "type": "address"
        },
        {
          "indexed": true,
          "internalType": "uint256",
          "name": "tokenId",
          "type": "uint256"
        }
      ],
      "name": "Approval",
      "type": "event"
    },
    {
      "anonymous": false,
      "inputs": [
        {
          "indexed": true,
          "internalType": "address",
          "name": "owner",
          "type": "address"
        },
        {
          "indexed": true,
          "internalType": "address",
          "name": "operator",
          "type": "address"
        },
        {
          "indexed": false,
          "internalType": "bool",
          "name": "approved",
          "type": "bool"
        }
      ],
      "name": "ApprovalForAll",
      "type": "event"
    },
    {
      "anonymous": false,
      "inputs": [
        {
          "indexed": false,
          "internalType": "uint256",
          "name": "_fromTokenId",
          "type": "uint256"
        },
        {
          "indexed": false,
          "internalType": "uint256",
          "name": "_toTokenId",
          "type": "uint256"
        }
      ],
      "name": "BatchMetadataUpdate",
      "type": "event"
    },
    {
      "anonymous": false,
      "inputs": [
        {
          "indexed": false,
          "internalType": "uint256",
          "name": "_tokenId",
          "type": "uint256"
        }
      ],
      "name": "MetadataUpdate",
      "type": "event"
    },
    {
      "anonymous": false,
      "inputs": [
        {
          "indexed": true,
          "internalType": "address",
          "name": "previousOwner",
          "type": "address"
        },
        {
          "indexed": true,
          "internalType": "address",
          "name": "newOwner",
          "type": "address"
        }
      ],
      "name": "OwnershipTransferred",
      "type": "event"
    },
    {
      "anonymous": false,
      "inputs": [
        {
          "indexed": false,
          "internalType": "address",
          "name": "account",
          "type": "address"
        }
      ],
      "name": "Paused",
      "type": "event"
    },
    {
      "anonymous": false,
      "inputs": [
        {
          "indexed": true,
          "internalType": "uint256",
          "name": "tokenId",
          "type": "uint256"
        },
        {
          "indexed": true,
          "internalType": "address",
          "name": "seller",
          "type": "address"
        }
      ],
      "name": "PromptDelisted",
      "type": "event"
    },
    {
      "anonymous": false,
      "inputs": [
        {
          "indexed": true,
          "internalType": "uint256",
          "name": "tokenId",
          "type": "uint256"
        },
        {
          "indexed": true,
          "internalType": "address",
          "name": "seller",
          "type": "address"
        },
        {
          "indexed": false,
          "internalType": "uint256",
          "name": "price",
          "type": "uint256"
        }
      ],
      "name": "PromptListed",
      "type": "event"
    },
    {
      "anonymous": false,
      "inputs": [
        {
          "indexed": true,
          "internalType": "uint256",
          "name": "tokenId",
          "type": "uint256"
        },
        {
          "indexed": true,
          "internalType": "address",
          "name": "creator",
          "type": "address"
        },
        {
          "indexed": false,
          "internalType": "string",
          "name": "title",
          "type": "string"
        },
        {
          "indexed": false,
          "internalType": "string",
          "name": "platform",
          "type": "string"
        },
        {
          "indexed": false,
          "internalType": "uint256",
          "name": "price",
          "type": "uint256"
        },
        {
          "indexed": false,
          "internalType": "string",
          "name": "tokenURI",
          "type": "string"
        }
      ],
      "name": "PromptMinted",
      "type": "event"
    },
    {
      "anonymous": false,
      "inputs": [
        {
          "indexed": true,
          "internalType": "uint256",
          "name": "tokenId",
          "type": "uint256"
        },
        {
          "indexed": true,
          "internalType": "address",
          "name": "seller",
          "type": "address"
        },
        {
          "indexed": true,
          "internalType": "address",
          "name": "buyer",
          "type": "address"
        },
        {
          "indexed": false,
          "internalType": "uint256",
          "name": "price",
          "type": "uint256"
        }
      ],
      "name": "PromptSold",
      "type": "event"
    },
    {
      "anonymous": false,
      "inputs": [
        {
          "indexed": true,
          "internalType": "address",
          "name": "from",
          "type": "address"
        },
        {
          "indexed": true,
          "internalType": "address",
          "name": "to",
          "type": "address"
        },
        {
          "indexed": true,
          "internalType": "uint256",
          "name": "tokenId",
          "type": "uint256"
        }
      ],
      "name": "Transfer",
      "type": "event"
    },
    {
      "anonymous": false,
      "inputs": [
        {
          "indexed": false,
          "internalType": "address",
          "name": "account",
          "type": "address"
        }
      ],
      "name": "Unpaused",
      "type": "event"
    },
    {
      "inputs": [
        {
          "internalType": "address",
          "name": "to",
          "type": "address"
        },
        {
          "internalType": "uint256",
          "name": "tokenId",
          "type": "uint256"
        }
      ],
      "name": "approve",
      "outputs": [],
      "stateMutability": "nonpayable",
      "type": "function"
    },
    {
      "inputs": [
        {
          "internalType": "address",
          "name": "owner",
          "type": "address"
        }
      ],
      "name": "balanceOf",
      "outputs": [
        {
          "internalType": "uint256",
          "name": "",
          "type": "uint256"
        }
      ],
      "stateMutability": "view",
      "type": "function"
    },
    {
      "inputs": [
        {
          "internalType": "uint256",
          "name": "tokenId",
          "type": "uint256"
        }
      ],
      "name": "buyPrompt",
      "outputs": [],
      "stateMutability": "payable",
      "type": "function"
    },
    {
      "inputs": [
        {
          "internalType": "uint256",
          "name": "tokenId",
          "type": "uint256"
        }
      ],
      "name": "delistFromSale",
      "outputs": [],
      "stateMutability": "nonpayable",
      "type": "function"
    },
    {
      "inputs": [],
      "name": "feeRecipient",
      "outputs": [
        {
          "internalType": "address",
          "name": "",
          "type": "address"
        }
      ],
      "stateMutability": "view",
      "type": "function"
    },
    {
      "inputs": [
        {
          "internalType": "uint256",
          "name": "tokenId",
          "type": "uint256"
        }
      ],
      "name": "getApproved",
      "outputs": [
        {
          "internalType": "address",
          "name": "",
          "type": "address"
        }
      ],
      "stateMutability": "view",
      "type": "function"
    },
    {
      "inputs": [
        {
          "internalType": "uint256",
          "name": "tokenId",
          "type": "uint256"
        }
      ],
      "name": "getPromptData",
      "outputs": [
        {
          "components": [
            {
              "internalType": "string",
              "name": "title",
              "type": "string"
            },
            {
              "internalType": "string",
              "name": "platform",
              "type": "string"
            },
            {
              "internalType": "string",
              "name": "description",
              "type": "string"
            },
            {
              "internalType": "string",
              "name": "promptText",
              "type": "string"
            },
            {
              "internalType": "address",
              "name": "creator",
              "type": "address"
            },
            {
              "internalType": "uint256",
              "name": "createdAt",
              "type": "uint256"
            },
            {
              "internalType": "bool",
              "name": "includeMedia",
              "type": "bool"
            },
            {
              "internalType": "bool",
              "name": "includeOutputSample",
              "type": "bool"
            },
            {
              "internalType": "bytes32",
              "name": "promptHash",
              "type": "bytes32"
            }
          ],
          "internalType": "struct AIPromptNFT.PromptData",
          "name": "",
          "type": "tuple"
        }
      ],
      "stateMutability": "view",
      "type": "function"
    },
    {
      "inputs": [
        {
          "internalType": "uint256",
          "name": "tokenId",
          "type": "uint256"
        }
      ],
      "name": "getSaleData",
      "outputs": [
        {
          "components": [
            {
              "internalType": "uint256",
              "name": "price",
              "type": "uint256"
            },
            {
              "internalType": "bool",
              "name": "isForSale",
              "type": "bool"
            },
            {
              "internalType": "address",
              "name": "seller",
              "type": "address"
            }
          ],
          "internalType": "struct AIPromptNFT.SaleData",
          "name": "",
          "type": "tuple"
        }
      ],
      "stateMutability": "view",
      "type": "function"
    },
    {
      "inputs": [
        {
          "internalType": "address",
          "name": "creator",
          "type": "address"
        }
      ],
      "name": "getTokensByCreator",
      "outputs": [
        {
          "internalType": "uint256[]",
          "name": "",
          "type": "uint256[]"
        }
      ],
      "stateMutability": "view",
      "type": "function"
    },
    {
      "inputs": [
        {
          "internalType": "address",
          "name": "owner",
          "type": "address"
        }
      ],
      "name": "getTokensByOwner",
      "outputs": [
        {
          "internalType": "uint256[]",
          "name": "",
          "type": "uint256[]"
        }
      ],
      "stateMutability": "view",
      "type": "function"
    },
    {
      "inputs": [],
      "name": "getTokensForSale",
      "outputs": [
        {
          "internalType": "uint256[]",
          "name": "",
          "type": "uint256[]"
        }
      ],
      "stateMutability": "view",
      "type": "function"
    },
    {
      "inputs": [
        {
          "internalType": "address",
          "name": "owner",
          "type": "address"
        },
        {
          "internalType": "address",
          "name": "operator",
          "type": "address"
        }
      ],
      "name": "isApprovedForAll",
      "outputs": [
        {
          "internalType": "bool",
          "name": "",
          "type": "bool"
        }
      ],
      "stateMutability": "view",
      "type": "function"
    },
    {
      "inputs": [
        {
          "internalType": "uint256",
          "name": "tokenId",
          "type": "uint256"
        },
        {
          "internalType": "uint256",
          "name": "price",
          "type": "uint256"
        }
      ],
      "name": "listForSale",
      "outputs": [],
      "stateMutability": "nonpayable",
      "type": "function"
    },
    {
      "inputs": [
        {
          "internalType": "string",
          "name": "title",
          "type": "string"
        },
        {
          "internalType": "string",
          "name": "platform",
          "type": "string"
        },
        {
          "internalType": "string",
          "name": "description",
          "type": "string"
        },
        {
          "internalType": "string",
          "name": "promptText",
          "type": "string"
        },
        {
          "internalType": "string",
          "name": "tokenURI_",
          "type": "string"
        },
        {
          "internalType": "uint256",
          "name": "price",
          "type": "uint256"
        },
        {
          "internalType": "uint96",
          "name": "royaltyPercent",
          "type": "uint96"
        },
        {
          "internalType": "bool",
          "name": "includeMedia",
          "type": "bool"
        },
        {
          "internalType": "bool",
          "name": "includeOutputSample",
          "type": "bool"
        }
      ],
      "name": "mintPrompt",
      "outputs": [],
      "stateMutability": "payable",
      "type": "function"
    },
    {
      "inputs": [],
      "name": "name",
      "outputs": [
        {
          "internalType": "string",
          "name": "",
          "type": "string"
        }
      ],
      "stateMutability": "view",
      "type": "function"
    },
    {
      "inputs": [],
      "name": "owner",
      "outputs": [
        {
          "internalType": "address",
          "name": "",
          "type": "address"
        }
      ],
      "stateMutability": "view",
      "type": "function"
    },
    {
      "inputs": [
        {
          "internalType": "uint256",
          "name": "tokenId",
          "type": "uint256"
        }
      ],
      "name": "ownerOf",
      "outputs": [
        {
          "internalType": "address",
          "name": "",
          "type": "address"
        }
      ],
      "stateMutability": "view",
      "type": "function"
    },
    {
      "inputs": [],
      "name": "pause",
      "outputs": [],
      "stateMutability": "nonpayable",
      "type": "function"
    },
    {
      "inputs": [],
      "name": "paused",
      "outputs": [
        {
          "internalType": "bool",
          "name": "",
          "type": "bool"
        }
      ],
      "stateMutability": "view",
      "type": "function"
    },
    {
      "inputs": [],
      "name": "platformFeePercent",
      "outputs": [
        {
          "internalType": "uint256",
          "name": "",
          "type": "uint256"
        }
      ],
      "stateMutability": "view",
      "type": "function"
    },
    {
      "inputs": [
        {
          "internalType": "bytes32",
          "name": "",
          "type": "bytes32"
        }
      ],
      "name": "promptExists",
      "outputs": [
        {
          "internalType": "bool",
          "name": "",
          "type": "bool"
        }
      ],
      "stateMutability": "view",
      "type": "function"
    },
    {
      "inputs": [
        {
          "internalType": "uint256",
          "name": "",
          "type": "uint256"
        }
      ],
      "name": "prompts",
      "outputs": [
        {
          "internalType": "string",
          "name": "title",
          "type": "string"
        },
        {
          "internalType": "string",
          "name": "platform",
          "type": "string"
        },
        {
          "internalType": "string",
          "name": "description",
          "type": "string"
        },
        {
          "internalType": "string",
          "name": "promptText",
          "type": "string"
        },
        {
          "internalType": "address",
          "name": "creator",
          "type": "address"
        },
        {
          "internalType": "uint256",
          "name": "createdAt",
          "type": "uint256"
        },
        {
          "internalType": "bool",
          "name": "includeMedia",
          "type": "bool"
        },
        {
          "internalType": "bool",
          "name": "includeOutputSample",
          "type": "bool"
        },
        {
          "internalType": "bytes32",
          "name": "promptHash",
          "type": "bytes32"
        }
      ],
      "stateMutability": "view",
      "type": "function"
    },
    {
      "inputs": [],
      "name": "renounceOwnership",
      "outputs": [],
      "stateMutability": "nonpayable",
      "type": "function"
    },
    {
      "inputs": [
        {
          "internalType": "uint256",
          "name": "tokenId",
          "type": "uint256"
        },
        {
          "internalType": "uint256",
          "name": "salePrice",
          "type": "uint256"
        }
      ],
      "name": "royaltyInfo",
      "outputs": [
        {
          "internalType": "address",
          "name": "receiver",
          "type": "address"
        },
        {
          "internalType": "uint256",
          "name": "amount",
          "type": "uint256"
        }
      ],
      "stateMutability": "view",
      "type": "function"
    },
    {
      "inputs": [
        {
          "internalType": "address",
          "name": "from",
          "type": "address"
        },
        {
          "internalType": "address",
          "name": "to",
          "type": "address"
        },
        {
          "internalType": "uint256",
          "name": "tokenId",
          "type": "uint256"
        }
      ],
      "name": "safeTransferFrom",
      "outputs": [],
      "stateMutability": "nonpayable",
      "type": "function"
    },
    {
      "inputs": [
        {
          "internalType": "address",
          "name": "from",
          "type": "address"
        },
        {
          "internalType": "address",
          "name": "to",
          "type": "address"
        },
        {
          "internalType": "uint256",
          "name": "tokenId",
          "type": "uint256"
        },
        {
          "internalType": "bytes",
          "name": "data",
          "type": "bytes"
        }
      ],
      "name": "safeTransferFrom",
      "outputs": [],
      "stateMutability": "nonpayable",
      "type": "function"
    },
    {
      "inputs": [
        {
          "internalType": "uint256",
          "name": "",
          "type": "uint256"
        }
      ],
      "name": "sales",
      "outputs": [
        {
          "internalType": "uint256",
          "name": "price",
          "type": "uint256"
        },
        {
          "internalType": "bool",
          "name": "isForSale",
          "type": "bool"
        },
        {
          "internalType": "address",
          "name": "seller",
          "type": "address"
        }
      ],
      "stateMutability": "view",
      "type": "function"
    },
    {
      "inputs": [
        {
          "internalType": "address",
          "name": "operator",
          "type": "address"
        },
        {
          "internalType": "bool",
          "name": "approved",
          "type": "bool"
        }
      ],
      "name": "setApprovalForAll",
      "outputs": [],
      "stateMutability": "nonpayable",
      "type": "function"
    },
    {
      "inputs": [
        {
          "internalType": "address",
          "name": "_feeRecipient",
          "type": "address"
        }
      ],
      "name": "setFeeRecipient",
      "outputs": [],
      "stateMutability": "nonpayable",
      "type": "function"
    },
    {
      "inputs": [
        {
          "internalType": "uint256",
          "name": "_feePercent",
          "type": "uint256"
        }
      ],
      "name": "setPlatformFee",
      "outputs": [],
      "stateMutability": "nonpayable",
      "type": "function"
    },
    {
      "inputs": [
        {
          "internalType": "bytes4",
          "name": "interfaceId",
          "type": "bytes4"
        }
      ],
      "name": "supportsInterface",
      "outputs": [
        {
          "internalType": "bool",
          "name": "",
          "type": "bool"
        }
      ],
      "stateMutability": "view",
      "type": "function"
    },
    {
      "inputs": [],
      "name": "symbol",
      "outputs": [
        {
          "internalType": "string",
          "name": "",
          "type": "string"
        }
      ],
      "stateMutability": "view",
      "type": "function"
    },
    {
      "inputs": [
        {
          "internalType": "uint256",
          "name": "tokenId",
          "type": "uint256"
        }
      ],
      "name": "tokenURI",
      "outputs": [
        {
          "internalType": "string",
          "name": "",
          "type": "string"
        }
      ],
      "stateMutability": "view",
      "type": "function"
    },
    {
      "inputs": [],
      "name": "totalSupply",
      "outputs": [
        {
          "internalType": "uint256",
          "name": "",
          "type": "uint256"
        }
      ],
      "stateMutability": "view",
      "type": "function"
    },
    {
      "inputs": [
        {
          "internalType": "address",
          "name": "from",
          "type": "address"
        },
        {
          "internalType": "address",
          "name": "to",
          "type": "address"
        },
        {
          "internalType": "uint256",
          "name": "tokenId",
          "type": "uint256"
        }
      ],
      "name": "transferFrom",
      "outputs": [],
      "stateMutability": "nonpayable",
      "type": "function"
    },
    {
      "inputs": [
        {
          "internalType": "address",
          "name": "newOwner",
          "type": "address"
        }
      ],
      "name": "transferOwnership",
      "outputs": [],
      "stateMutability": "nonpayable",
      "type": "function"
    },
    {
      "inputs": [],
      "name": "unpause",
      "outputs": [],
      "stateMutability": "nonpayable",
      "type": "function"
    },
    {
      "inputs": [
        {
          "internalType": "uint256",
          "name": "tokenId",
          "type": "uint256"
        },
        {
          "internalType": "uint256",
          "name": "newPrice",
          "type": "uint256"
        }
      ],
      "name": "updatePrice",
      "outputs": [],
      "stateMutability": "nonpayable",
      "type": "function"
    },
    {
      "inputs": [],
      "name": "withdrawFees",
      "outputs": [],
      "stateMutability": "nonpayable",
      "type": "function"
    }
  ],
  "bytecode": "0x608060405260fa600d553480156200001657600080fd5b50604051620038c9380380620038c98339810160408190526200003991620001dc565b33838360026200004a8382620002f8565b506003620000598282620002f8565b5050506001600160a01b0381166200008b57604051631e4fbdf760e01b81526000600482015260240160405180910390fd5b6200009681620000c5565b506001600a55600e80546001600160a01b0319166001600160a01b039290921691909117905550620003c49050565b600980546001600160a01b038381166001600160a01b0319831681179093556040519116919082907f8be0079c531659141344cd1fd0a4f28419497f9722a3daafe3b4186f6b6457e090600090a35050565b634e487b7160e01b600052604160045260246000fd5b600082601f8301126200013f57600080fd5b81516001600160401b03808211156200015c576200015c62000117565b604051601f8301601f19908116603f0116810190828211818310171562000187576200018762000117565b81604052838152602092508683858801011115620001a457600080fd5b600091505b83821015620001c85785820183015181830184015290820190620001a9565b600093810190920192909252949350505050565b600080600060608486031215620001f257600080fd5b83516001600160401b03808211156200020a57600080fd5b62000218878388016200012d565b945060208601519150808211156200022f57600080fd5b506200023e868287016200012d565b604086015190935090506001600160a01b03811681146200025e57600080fd5b809150509250925092565b600181811c908216806200027e57607f821691505b6020821081036200029f57634e487b7160e01b600052602260045260246000fd5b50919050565b601f821115620002f357600081815260208120601f850160051c81016020861015620002ce5750805b601f850160051c820191505b81811015620002ef57828155600101620002da565b5050505b505050565b81516001600160401b0381111562000314576200031462000117565b6200032c8162000325845462000269565b84620002a5565b602080601f8311600181146200036457600084156200034b5750858301515b600019600386901b1c1916600185901b178555620002ef565b600085815260208120601f198616915b82811015620003955788860151825594840194600190910190840162000374565b5085821015620003b45787850151600019600388901b60f8161c191681555b5050505050600190811b01905550565b6134f580620003d46000396000f3fe6080604052600436106102305760003560e01c8063715018a61161012e578063b88d4fde116100ab578063d5c712751161006f578063d5c712751461070b578063e74b981b1461072b578063e80d7fec1461074b578063e985e9c51461076b578063f2fde38b1461078b57600080fd5b8063b88d4fde14610656578063bc1ca80614610676578063c4aa418b14610689578063c87b56dd146106b6578063d4cf9af7146106d657600080fd5b80638da5cb5b116100f25780638da5cb5b1461057857806395791aeb1461059657806395d89b41146105b6578063a22cb465146105cb578063b5f522f7146105eb57600080fd5b8063715018a6146104cb57806382367b2d146104e05780638456cb591461050057806386630b7b146105155780638c639a851461056257600080fd5b80633d8a3583116101bc578063476343ee11610180578063476343ee146104495780635c975abb1461045e5780636352211e1461047657806365e4e1c01461049657806370a08231146104ab57600080fd5b80633d8a3583146103975780633f4ba83a146103c757806340398d67146103dc57806342842e0e14610409578063469048401461042957600080fd5b806312e8e2c31161020357806312e8e2c3146102e657806318160ddd146103065780631e1a082c1461032557806323b872dd146103385780632a55205a1461035857600080fd5b806301ffc9a71461023557806306fdde031461026a578063081812fc1461028c578063095ea7b3146102c4575b600080fd5b34801561024157600080fd5b50610255610250366004612bef565b6107ab565b60405190151581526020015b60405180910390f35b34801561027657600080fd5b5061027f6107bc565b6040516102619190612c5c565b34801561029857600080fd5b506102ac6102a7366004612c6f565b61084e565b6040516001600160a01b039091168152602001610261565b3480156102d057600080fd5b506102e46102df366004612ca4565b610877565b005b3480156102f257600080fd5b506102e4610301366004612c6f565b610886565b34801561031257600080fd5b50600c545b604051908152602001610261565b6102e4610333366004612c6f565b6108d9565b34801561034457600080fd5b506102e4610353366004612cce565b610c05565b34801561036457600080fd5b50610378610373366004612d0a565b610c90565b604080516001600160a01b039093168352602083019190915201610261565b3480156103a357600080fd5b506102556103b2366004612c6f565b60116020526000908152604090205460ff1681565b3480156103d357600080fd5b506102e4610d15565b3480156103e857600080fd5b506103fc6103f7366004612d2c565b610d27565b6040516102619190612d47565b34801561041557600080fd5b506102e4610424366004612cce565b610e02565b34801561043557600080fd5b50600e546102ac906001600160a01b031681565b34801561045557600080fd5b506102e4610e22565b34801561046a57600080fd5b50600b5460ff16610255565b34801561048257600080fd5b506102ac610491366004612c6f565b610ea8565b3480156104a257600080fd5b506103fc610eb3565b3480156104b757600080fd5b506103176104c6366004612d2c565b610fb5565b3480156104d757600080fd5b506102e4610ffd565b3480156104ec57600080fd5b506102e46104fb366004612d0a565b61100f565b34801561050c57600080fd5b506102e4611143565b34801561052157600080fd5b50610535610530366004612c6f565b611153565b6040805182518152602080840151151590820152918101516001600160a01b031690820152606001610261565b34801561056e57600080fd5b50610317600d5481565b34801561058457600080fd5b506009546001600160a01b03166102ac565b3480156105a257600080fd5b506102e46105b1366004612c6f565b611213565b3480156105c257600080fd5b5061027f6112ee565b3480156105d757600080fd5b506102e46105e6366004612d9b565b6112fd565b3480156105f757600080fd5b50610632610606366004612c6f565b6010602052600090815260409020805460019091015460ff81169061010090046001600160a01b031683565b6040805193845291151560208401526001600160a01b031690820152606001610261565b34801561066257600080fd5b506102e4610671366004612e5a565b611308565b6102e4610684366004612f0d565b611320565b34801561069557600080fd5b506106a96106a4366004612c6f565b611661565b604051610261919061301b565b3480156106c257600080fd5b5061027f6106d1366004612c6f565b6119bc565b3480156106e257600080fd5b506106f66106f1366004612c6f565b6119c7565b604051610261999897969594939291906130f5565b34801561071757600080fd5b506103fc610726366004612d2c565b611c3f565b34801561073757600080fd5b506102e4610746366004612d2c565b611d4b565b34801561075757600080fd5b506102e4610766366004612d0a565b611dbd565b34801561077757600080fd5b5061025561078636600461317e565b611f34565b34801561079757600080fd5b506102e46107a6366004612d2c565b611f62565b60006107b682611f9d565b92915050565b6060600280546107cb906131a8565b80601f01602080910402602001604051908101604052809291908181526020018280546107f7906131a8565b80156108445780601f1061081957610100808354040283529160200191610844565b820191906000526020600020905b81548152906001019060200180831161082757829003601f168201915b5050505050905090565b600061085982611fa8565b506000828152600660205260409020546001600160a01b03166107b6565b610882828233611fe1565b5050565b61088e611fee565b6103e88111156108d45760405162461bcd60e51b815260206004820152600c60248201526b08ccaca40e8dede40d0d2ced60a31b60448201526064015b60405180910390fd5b600d55565b6108e161201b565b6108e9612045565b60008181526010602090815260409182902082516060810184528154815260019091015460ff8116151592820183905261010090046001600160a01b0316928101929092526109695760405162461bcd60e51b815260206004820152600c60248201526b4e6f7420666f722073616c6560a01b60448201526064016108cb565b80513410156109b15760405162461bcd60e51b8152602060048201526014602482015273125b9cdd59999a58da595b9d081c185e5b595b9d60621b60448201526064016108cb565b60408101516001600160a01b03163303610a025760405162461bcd60e51b815260206004820152601260248201527110d85b9b9bdd08189d5e481bdddb8813919560721b60448201526064016108cb565b60408082015182516000858152601060205292832060018101805460ff19169055839055909180610a338684610c90565b915091506000612710600d5485610a4a91906131f8565b610a54919061320f565b9050600081610a638487613231565b610a6d9190613231565b9050610a7a86338a612069565b600083118015610a9c5750856001600160a01b0316846001600160a01b031614155b15610add576040516001600160a01b0385169084156108fc029085906000818181858888f19350505050158015610ad7573d6000803e3d6000fd5b50610aea565b610ae78382613244565b90505b8115610b2c57600e546040516001600160a01b039091169083156108fc029084906000818181858888f19350505050158015610b2a573d6000803e3d6000fd5b505b6040516001600160a01b0387169082156108fc029083906000818181858888f19350505050158015610b62573d6000803e3d6000fd5b5084341115610ba357336108fc610b798734613231565b6040518115909202916000818181858888f19350505050158015610ba1573d6000803e3d6000fd5b505b336001600160a01b0316866001600160a01b0316897ff2b620aa33d07c30c8d89fabd167371d01ce8036f21fc7049b4213ed12935bb388604051610be991815260200190565b60405180910390a450505050505050610c026001600a55565b50565b6001600160a01b038216610c2f57604051633250574960e11b8152600060048201526024016108cb565b6000610c3c838333612119565b9050836001600160a01b0316816001600160a01b031614610c8a576040516364283d7b60e01b81526001600160a01b03808616600483015260248201849052821660448201526064016108cb565b50505050565b600082815260016020526040812080548291906001600160a01b03811690600160a01b90046001600160601b031681610ce45750506000546001600160a01b03811690600160a01b90046001600160601b03165b6000612710610cfc6001600160601b038416896131f8565b610d06919061320f565b92989297509195505050505050565b610d1d611fee565b610d25612212565b565b600c546060906000610d3884610fb5565b905060008167ffffffffffffffff811115610d5557610d55612dce565b604051908082528060200260200182016040528015610d7e578160200160208202803683370190505b5090506000805b8481108015610d9357508382105b15610df7576000818152600460205260409020546001600160a01b03888116911603610de55780838381518110610dcc57610dcc613257565b602090810291909101015281610de18161326d565b9250505b80610def8161326d565b915050610d85565b509095945050505050565b610e1d83838360405180602001604052806000815250611308565b505050565b610e2a611fee565b4780610e6e5760405162461bcd60e51b81526020600482015260136024820152724e6f206665657320746f20776974686472617760681b60448201526064016108cb565b600e546040516001600160a01b039091169082156108fc029083906000818181858888f19350505050158015610882573d6000803e3d6000fd5b60006107b682611fa8565b600c546060906000805b82811015610eff5760008181526010602052604090206001015460ff1615610eed5781610ee98161326d565b9250505b80610ef78161326d565b915050610ebd565b5060008167ffffffffffffffff811115610f1b57610f1b612dce565b604051908082528060200260200182016040528015610f44578160200160208202803683370190505b5090506000805b84811015610fab5760008181526010602052604090206001015460ff1615610f995780838381518110610f8057610f80613257565b602090810291909101015281610f958161326d565b9250505b80610fa38161326d565b915050610f4b565b5090949350505050565b60006001600160a01b038216610fe1576040516322718ad960e21b8152600060048201526024016108cb565b506001600160a01b031660009081526005602052604090205490565b611005611fee565b610d256000612264565b813361101a82610ea8565b6001600160a01b0316146110405760405162461bcd60e51b81526004016108cb90613286565b611048612045565b60008381526010602052604090206001015460ff1661109f5760405162461bcd60e51b81526020600482015260136024820152724e6f74206c697374656420666f722073616c6560681b60448201526064016108cb565b600082116110ef5760405162461bcd60e51b815260206004820152601c60248201527f5072696365206d7573742062652067726561746572207468616e20300000000060448201526064016108cb565b6000838152601060205260409081902083905551339084907f881c25d598c5c210fd81368e0ed1e9bab4d974c8fd7d6007ad4bfd230b0237e1906111369086815260200190565b60405180910390a3505050565b61114b611fee565b610d256122b6565b60408051606081018252600080825260208083018290528284018290528482526004905291909120546001600160a01b03166111c85760405162461bcd60e51b8152602060048201526014602482015273151bdad95b88191bd95cc81b9bdd08195e1a5cdd60621b60448201526064016108cb565b5060009081526010602090815260409182902082516060810184528154815260019091015460ff81161515928201929092526101009091046001600160a01b03169181019190915290565b803361121e82610ea8565b6001600160a01b0316146112445760405162461bcd60e51b81526004016108cb90613286565b61124c612045565b60008281526010602052604090206001015460ff166112a35760405162461bcd60e51b81526020600482015260136024820152724e6f74206c697374656420666f722073616c6560681b60448201526064016108cb565b60008281526010602052604080822060018101805460ff1916905582905551339184917ff0a02a8f7309024ee6953d8b168cd055150d66ec22d1411ad2653e9b8ac3c5c49190a35050565b6060600380546107cb906131a8565b6108823383836122f3565b611313848484610c05565b610c8a338585858561238a565b61132861201b565b611330612045565b600086336040516020016113459291906132af565b60408051601f1981840301815291815281516020928301206000818152601190935291205490915060ff16156113b55760405162461bcd60e51b815260206004820152601560248201527450726f6d707420616c72656164792065786973747360581b60448201526064016108cb565b6107d0846001600160601b031611156114035760405162461bcd60e51b815260206004820152601060248201526f0a4def2c2d8e8f240e8dede40d0d2ced60831b60448201526064016108cb565b600c805490819060006114158361326d565b919050555061142433826124b5565b61142e81886124cf565b61143981338761251f565b60408051610120810182528c815260208082018d90528183018c9052606082018b90523360808301524260a083015286151560c083015285151560e083015261010082018590526000848152600f909152919091208151819061149c908261332c565b50602082015160018201906114b1908261332c565b50604082015160028201906114c6908261332c565b50606082015160038201906114db908261332c565b5060808201516004820180546001600160a01b0319166001600160a01b0390921691909117905560a0820151600582015560c082015160068201805460e085015161ffff1990911692151561ff001916929092176101009215158302179055909101516007909101556000828152601160205260409020805460ff1916600117905585156116025760408051606081018252878152600160208083018281523384860181815260008881526010855287902095518655915194909301805491516001600160a81b0319909216941515610100600160a81b031916949094176101006001600160a01b039092169190910217909255915188815283917f881c25d598c5c210fd81368e0ed1e9bab4d974c8fd7d6007ad4bfd230b0237e1910160405180910390a35b336001600160a01b0316817ff4e883f9dc251228c8bb45787fab453f9bb0c02953772d10afcb487ea86ed3cd8d8d8a8c60405161164294939291906133ec565b60405180910390a350506116566001600a55565b505050505050505050565b60408051610120810182526060808252602082018190529181018290528181019190915260006080820181905260a0820181905260c0820181905260e082018190526101008201526000828152600460205260408120546001600160a01b03166001600160a01b03160361170e5760405162461bcd60e51b8152602060048201526014602482015273151bdad95b88191bd95cc81b9bdd08195e1a5cdd60621b60448201526064016108cb565b6000828152600f60205260409081902081516101208101909252805482908290611737906131a8565b80601f0160208091040260200160405190810160405280929190818152602001828054611763906131a8565b80156117b05780601f10611785576101008083540402835291602001916117b0565b820191906000526020600020905b81548152906001019060200180831161179357829003601f168201915b505050505081526020016001820180546117c9906131a8565b80601f01602080910402602001604051908101604052809291908181526020018280546117f5906131a8565b80156118425780601f1061181757610100808354040283529160200191611842565b820191906000526020600020905b81548152906001019060200180831161182557829003601f168201915b5050505050815260200160028201805461185b906131a8565b80601f0160208091040260200160405190810160405280929190818152602001828054611887906131a8565b80156118d45780601f106118a9576101008083540402835291602001916118d4565b820191906000526020600020905b8154815290600101906020018083116118b757829003601f168201915b505050505081526020016003820180546118ed906131a8565b80601f0160208091040260200160405190810160405280929190818152602001828054611919906131a8565b80156119665780601f1061193b57610100808354040283529160200191611966565b820191906000526020600020905b81548152906001019060200180831161194957829003601f168201915b505050918352505060048201546001600160a01b0316602082015260058201546040820152600682015460ff80821615156060840152610100909104161515608082015260079091015460a09091015292915050565b60606107b6826125e1565b600f602052600090815260409020805481906119e2906131a8565b80601f0160208091040260200160405190810160405280929190818152602001828054611a0e906131a8565b8015611a5b5780601f10611a3057610100808354040283529160200191611a5b565b820191906000526020600020905b815481529060010190602001808311611a3e57829003601f168201915b505050505090806001018054611a70906131a8565b80601f0160208091040260200160405190810160405280929190818152602001828054611a9c906131a8565b8015611ae95780601f10611abe57610100808354040283529160200191611ae9565b820191906000526020600020905b815481529060010190602001808311611acc57829003601f168201915b505050505090806002018054611afe906131a8565b80601f0160208091040260200160405190810160405280929190818152602001828054611b2a906131a8565b8015611b775780601f10611b4c57610100808354040283529160200191611b77565b820191906000526020600020905b815481529060010190602001808311611b5a57829003601f168201915b505050505090806003018054611b8c906131a8565b80601f0160208091040260200160405190810160405280929190818152602001828054611bb8906131a8565b8015611c055780601f10611bda57610100808354040283529160200191611c05565b820191906000526020600020905b815481529060010190602001808311611be857829003601f168201915b5050505060048301546005840154600685015460079095015493946001600160a01b039092169390925060ff808316926101009004169089565b600c546060906000805b82811015611c95576000818152600f60205260409020600401546001600160a01b03808716911603611c835781611c7f8161326d565b9250505b80611c8d8161326d565b915050611c49565b5060008167ffffffffffffffff811115611cb157611cb1612dce565b604051908082528060200260200182016040528015611cda578160200160208202803683370190505b5090506000805b84811015610df7576000818152600f60205260409020600401546001600160a01b03808916911603611d395780838381518110611d2057611d20613257565b602090810291909101015281611d358161326d565b9250505b80611d438161326d565b915050611ce1565b611d53611fee565b6001600160a01b038116611d9b5760405162461bcd60e51b815260206004820152600f60248201526e496e76616c6964206164647265737360881b60448201526064016108cb565b600e80546001600160a01b0319166001600160a01b0392909216919091179055565b8133611dc882610ea8565b6001600160a01b031614611dee5760405162461bcd60e51b81526004016108cb90613286565b611df6612045565b60008211611e465760405162461bcd60e51b815260206004820152601c60248201527f5072696365206d7573742062652067726561746572207468616e20300000000060448201526064016108cb565b60008381526010602052604090206001015460ff1615611e995760405162461bcd60e51b815260206004820152600e60248201526d105b1c9958591e481b1a5cdd195960921b60448201526064016108cb565b60408051606081018252838152600160208083018281523384860181815260008a81526010855287902095518655915194909301805491516001600160a81b0319909216941515610100600160a81b031916949094176101006001600160a01b039092169190910217909255915184815285917f881c25d598c5c210fd81368e0ed1e9bab4d974c8fd7d6007ad4bfd230b0237e19101611136565b6001600160a01b03918216600090815260076020908152604080832093909416825291909152205460ff1690565b611f6a611fee565b6001600160a01b038116611f9457604051631e4fbdf760e01b8152600060048201526024016108cb565b610c0281612264565b60006107b6826126f2565b6000818152600460205260408120546001600160a01b0316806107b657604051637e27328960e01b8152600481018490526024016108cb565b610e1d8383836001612717565b6009546001600160a01b03163314610d255760405163118cdaa760e01b81523360048201526024016108cb565b6002600a540361203e57604051633ee5aeb560e01b815260040160405180910390fd5b6002600a55565b600b5460ff1615610d255760405163d93c066560e01b815260040160405180910390fd5b6001600160a01b03821661209357604051633250574960e11b8152600060048201526024016108cb565b60006120a183836000612119565b90506001600160a01b0381166120cd57604051637e27328960e01b8152600481018390526024016108cb565b836001600160a01b0316816001600160a01b031614610c8a576040516364283d7b60e01b81526001600160a01b03808616600483015260248201849052821660448201526064016108cb565b6000828152600460205260408120546001600160a01b03908116908316156121465761214681848661281d565b6001600160a01b0381161561218457612163600085600080612717565b6001600160a01b038116600090815260056020526040902080546000190190555b6001600160a01b038516156121b3576001600160a01b0385166000908152600560205260409020805460010190555b60008481526004602052604080822080546001600160a01b0319166001600160a01b0389811691821790925591518793918516917fddf252ad1be2c89b69c2b068fc378daa952ba7f163c4a11628f55a4df523b3ef91a4949350505050565b61221a612881565b600b805460ff191690557f5db9ee0a495bf2e6ff9c91a7834c1ba4fdd244a5e8aa4e537bd38aeae4b073aa335b6040516001600160a01b03909116815260200160405180910390a1565b600980546001600160a01b038381166001600160a01b0319831681179093556040519116919082907f8be0079c531659141344cd1fd0a4f28419497f9722a3daafe3b4186f6b6457e090600090a35050565b6122be612045565b600b805460ff191660011790557f62e78cea01bee320cd4e420270b5ea74000d11b0c9f74754ebdbfc544b05a2586122473390565b6001600160a01b03821661232557604051630b61174360e31b81526001600160a01b03831660048201526024016108cb565b6001600160a01b03838116600081815260076020908152604080832094871680845294825291829020805460ff191686151590811790915591519182527f17307eab39ab6107e8899845ad3d59bd9653f200f220920489ca2b5937696c319101611136565b6001600160a01b0383163b156124ae57604051630a85bd0160e11b81526001600160a01b0384169063150b7a02906123cc908890889087908790600401613436565b6020604051808303816000875af1925050508015612407575060408051601f3d908101601f1916820190925261240491810190613473565b60015b612470573d808015612435576040519150601f19603f3d011682016040523d82523d6000602084013e61243a565b606091505b50805160000361246857604051633250574960e11b81526001600160a01b03851660048201526024016108cb565b805160208201fd5b6001600160e01b03198116630a85bd0160e11b146124ac57604051633250574960e11b81526001600160a01b03851660048201526024016108cb565b505b5050505050565b6108828282604051806020016040528060008152506128a4565b60008281526008602052604090206124e7828261332c565b506040518281527ff8e1a15aba9398e019f0b49df1a4fde98ee17ae345cb5f6b5e2c27f5033e8ce79060200160405180910390a15050565b6127106001600160601b0382168110156125655760405163dfd1fc1b60e01b8152600481018590526001600160601b0383166024820152604481018290526064016108cb565b6001600160a01b03831661259657604051634b4f842960e11b815260048101859052600060248201526044016108cb565b506040805180820182526001600160a01b0393841681526001600160601b0392831660208083019182526000968752600190529190942093519051909116600160a01b029116179055565b60606125ec82611fa8565b5060008281526008602052604081208054612606906131a8565b80601f0160208091040260200160405190810160405280929190818152602001828054612632906131a8565b801561267f5780601f106126545761010080835404028352916020019161267f565b820191906000526020600020905b81548152906001019060200180831161266257829003601f168201915b50505050509050600061269d60408051602081019091526000815290565b905080516000036126af575092915050565b8151156126e15780826040516020016126c9929190613490565b60405160208183030381529060405292505050919050565b6126ea846128bc565b949350505050565b60006001600160e01b03198216632483248360e11b14806107b657506107b682612931565b808061272b57506001600160a01b03821615155b156127ed57600061273b84611fa8565b90506001600160a01b038316158015906127675750826001600160a01b0316816001600160a01b031614155b801561277a57506127788184611f34565b155b156127a35760405163a9fbf51f60e01b81526001600160a01b03841660048201526024016108cb565b81156127eb5783856001600160a01b0316826001600160a01b03167f8c5be1e5ebec7d5bd14f71427d1e84f3dd0314c0f7b2291e5b200ac8c7c3b92560405160405180910390a45b505b5050600090815260066020526040902080546001600160a01b0319166001600160a01b0392909216919091179055565b612828838383612971565b610e1d576001600160a01b03831661285657604051637e27328960e01b8152600481018290526024016108cb565b60405163177e802f60e01b81526001600160a01b0383166004820152602481018290526044016108cb565b600b5460ff16610d2557604051638dfc202b60e01b815260040160405180910390fd5b6128ae83836129d4565b610e1d33600085858561238a565b60606128c782611fa8565b5060006128df60408051602081019091526000815290565b905060008151116128ff576040518060200160405280600081525061292a565b8061290984612a39565b60405160200161291a929190613490565b6040516020818303038152906040525b9392505050565b60006001600160e01b031982166380ac58cd60e01b148061296257506001600160e01b03198216635b5e139f60e01b145b806107b657506107b682612acc565b60006001600160a01b038316158015906126ea5750826001600160a01b0316846001600160a01b031614806129ab57506129ab8484611f34565b806126ea5750506000908152600660205260409020546001600160a01b03908116911614919050565b6001600160a01b0382166129fe57604051633250574960e11b8152600060048201526024016108cb565b6000612a0c83836000612119565b90506001600160a01b03811615610e1d576040516339e3563760e11b8152600060048201526024016108cb565b60606000612a4683612b01565b600101905060008167ffffffffffffffff811115612a6657612a66612dce565b6040519080825280601f01601f191660200182016040528015612a90576020820181803683370190505b5090508181016020015b600019016f181899199a1a9b1b9c1cb0b131b232b360811b600a86061a8153600a8504945084612a9a57509392505050565b60006001600160e01b0319821663152a902d60e11b14806107b657506301ffc9a760e01b6001600160e01b03198316146107b6565b60008072184f03e93ff9f4daa797ed6e38ed64bf6a1f0160401b8310612b405772184f03e93ff9f4daa797ed6e38ed64bf6a1f0160401b830492506040015b6d04ee2d6d415b85acef81000000008310612b6c576d04ee2d6d415b85acef8100000000830492506020015b662386f26fc100008310612b8a57662386f26fc10000830492506010015b6305f5e1008310612ba2576305f5e100830492506008015b6127108310612bb657612710830492506004015b60648310612bc8576064830492506002015b600a83106107b65760010192915050565b6001600160e01b031981168114610c0257600080fd5b600060208284031215612c0157600080fd5b813561292a81612bd9565b60005b83811015612c27578181015183820152602001612c0f565b50506000910152565b60008151808452612c48816020860160208601612c0c565b601f01601f19169290920160200192915050565b60208152600061292a6020830184612c30565b600060208284031215612c8157600080fd5b5035919050565b80356001600160a01b0381168114612c9f57600080fd5b919050565b60008060408385031215612cb757600080fd5b612cc083612c88565b946020939093013593505050565b600080600060608486031215612ce357600080fd5b612cec84612c88565b9250612cfa60208501612c88565b9150604084013590509250925092565b60008060408385031215612d1d57600080fd5b50508035926020909101359150565b600060208284031215612d3e57600080fd5b61292a82612c88565b6020808252825182820181905260009190848201906040850190845b81811015612d7f57835183529284019291840191600101612d63565b50909695505050505050565b80358015158114612c9f57600080fd5b60008060408385031215612dae57600080fd5b612db783612c88565b9150612dc560208401612d8b565b90509250929050565b634e487b7160e01b600052604160045260246000fd5b600067ffffffffffffffff80841115612dff57612dff612dce565b604051601f8501601f19908116603f01168101908282118183101715612e2757612e27612dce565b81604052809350858152868686011115612e4057600080fd5b858560208301376000602087830101525050509392505050565b60008060008060808587031215612e7057600080fd5b612e7985612c88565b9350612e8760208601612c88565b925060408501359150606085013567ffffffffffffffff811115612eaa57600080fd5b8501601f81018713612ebb57600080fd5b612eca87823560208401612de4565b91505092959194509250565b600082601f830112612ee757600080fd5b61292a83833560208501612de4565b80356001600160601b0381168114612c9f57600080fd5b60008060008060008060008060006101208a8c031215612f2c57600080fd5b893567ffffffffffffffff80821115612f4457600080fd5b612f508d838e01612ed6565b9a5060208c0135915080821115612f6657600080fd5b612f728d838e01612ed6565b995060408c0135915080821115612f8857600080fd5b612f948d838e01612ed6565b985060608c0135915080821115612faa57600080fd5b612fb68d838e01612ed6565b975060808c0135915080821115612fcc57600080fd5b50612fd98c828d01612ed6565b95505060a08a01359350612fef60c08b01612ef6565b9250612ffd60e08b01612d8b565b915061300c6101008b01612d8b565b90509295985092959850929598565b602081526000825161012080602085015261303a610140850183612c30565b91506020850151601f19808685030160408701526130588483612c30565b935060408701519150808685030160608701526130758483612c30565b93506060870151915080868503016080870152506130938382612c30565b92505060808501516130b060a08601826001600160a01b03169052565b5060a085015160c085015260c08501516130ce60e086018215159052565b5060e08501516101006130e48187018315159052565b959095015193019290925250919050565b60006101208083526131098184018d612c30565b9050828103602084015261311d818c612c30565b90508281036040840152613131818b612c30565b90508281036060840152613145818a612c30565b6001600160a01b03989098166080840152505060a081019490945291151560c0840152151560e083015261010090910152949350505050565b6000806040838503121561319157600080fd5b61319a83612c88565b9150612dc560208401612c88565b600181811c908216806131bc57607f821691505b6020821081036131dc57634e487b7160e01b600052602260045260246000fd5b50919050565b634e487b7160e01b600052601160045260246000fd5b80820281158282048414176107b6576107b66131e2565b60008261322c57634e487b7160e01b600052601260045260246000fd5b500490565b818103818111156107b6576107b66131e2565b808201808211156107b6576107b66131e2565b634e487b7160e01b600052603260045260246000fd5b60006001820161327f5761327f6131e2565b5060010190565b6020808252600f908201526e2737ba103a37b5b2b71037bbb732b960891b604082015260600190565b600083516132c1818460208801612c0c565b60609390931b6bffffffffffffffffffffffff19169190920190815260140192915050565b601f821115610e1d57600081815260208120601f850160051c8101602086101561330d5750805b601f850160051c820191505b818110156124ac57828155600101613319565b815167ffffffffffffffff81111561334657613346612dce565b61335a8161335484546131a8565b846132e6565b602080601f83116001811461338f57600084156133775750858301515b600019600386901b1c1916600185901b1785556124ac565b600085815260208120601f198616915b828110156133be5788860151825594840194600190910190840161339f565b50858210156133dc5787850151600019600388901b60f8161c191681555b5050505050600190811b01905550565b6080815260006133ff6080830187612c30565b82810360208401526134118187612c30565b9050846040840152828103606084015261342b8185612c30565b979650505050505050565b6001600160a01b038581168252841660208201526040810183905260806060820181905260009061346990830184612c30565b9695505050505050565b60006020828403121561348557600080fd5b815161292a81612bd9565b600083516134a2818460208801612c0c565b8351908301906134b6818360208801612c0c565b0194935050505056fea2646970667358221220ada1503bab42686a59041f109b8aaf2e20dd1db72d9a41fd024b05aa65a64d5764736f6c63430008140033",
  "linkReferences": {},
  "deployedLinkReferences": {}
}