{
  "_format": "hh-sol-artifact-1",
  "contractName": "AIPromptNFT",
  "sourceName": "contracts/NFT.sol",
  "abi": [
    {
      "inputs": [
        {
          "internalType": "string",
          "name": "name",
          "type": "string"
        },
        {
          "internalType": "string",
          "name": "symbol",
          "type": "string"
        },
        {
          "internalType": "address",
          "name": "_feeRecipient",
          "type": "address"
        }
      ],
      "stateMutability": "nonpayable",
      "type": "constructor"
    },
    {
      "inputs": [
        {
          "internalType": "uint256",
          "name": "numerator",
          "type": "uint256"
        },
        {
          "internalType": "uint256",
          "name": "denominator",
          "type": "uint256"
        }
      ],
      "name": "ERC2981InvalidDefaultRoyalty",
      "type": "error"
    },
    {
      "inputs": [
        {
          "internalType": "address",
          "name": "receiver",
          "type": "address"
        }
      ],
      "name": "ERC2981InvalidDefaultRoyaltyReceiver",
      "type": "error"
    },
    {
      "inputs": [
        {
          "internalType": "uint256",
          "name": "tokenId",
          "type": "uint256"
        },
        {
          "internalType": "uint256",
          "name": "numerator",
          "type": "uint256"
        },
        {
          "internalType": "uint256",
          "name": "denominator",
          "type": "uint256"
        }
      ],
      "name": "ERC2981InvalidTokenRoyalty",
      "type": "error"
    },
    {
      "inputs": [
        {
          "internalType": "uint256",
          "name": "tokenId",
          "type": "uint256"
        },
        {
          "internalType": "address",
          "name": "receiver",
          "type": "address"
        }
      ],
      "name": "ERC2981InvalidTokenRoyaltyReceiver",
      "type": "error"
    },
    {
      "inputs": [
        {
          "internalType": "address",
          "name": "sender",
          "type": "address"
        },
        {
          "internalType": "uint256",
          "name": "tokenId",
          "type": "uint256"
        },
        {
          "internalType": "address",
          "name": "owner",
          "type": "address"
        }
      ],
      "name": "ERC721IncorrectOwner",
      "type": "error"
    },
    {
      "inputs": [
        {
          "internalType": "address",
          "name": "operator",
          "type": "address"
        },
        {
          "internalType": "uint256",
          "name": "tokenId",
          "type": "uint256"
        }
      ],
      "name": "ERC721InsufficientApproval",
      "type": "error"
    },
    {
      "inputs": [
        {
          "internalType": "address",
          "name": "approver",
          "type": "address"
        }
      ],
      "name": "ERC721InvalidApprover",
      "type": "error"
    },
    {
      "inputs": [
        {
          "internalType": "address",
          "name": "operator",
          "type": "address"
        }
      ],
      "name": "ERC721InvalidOperator",
      "type": "error"
    },
    {
      "inputs": [
        {
          "internalType": "address",
          "name": "owner",
          "type": "address"
        }
      ],
      "name": "ERC721InvalidOwner",
      "type": "error"
    },
    {
      "inputs": [
        {
          "internalType": "address",
          "name": "receiver",
          "type": "address"
        }
      ],
      "name": "ERC721InvalidReceiver",
      "type": "error"
    },
    {
      "inputs": [
        {
          "internalType": "address",
          "name": "sender",
          "type": "address"
        }
      ],
      "name": "ERC721InvalidSender",
      "type": "error"
    },
    {
      "inputs": [
        {
          "internalType": "uint256",
          "name": "tokenId",
          "type": "uint256"
        }
      ],
      "name": "ERC721NonexistentToken",
      "type": "error"
    },
    {
      "inputs": [],
      "name": "EnforcedPause",
      "type": "error"
    },
    {
      "inputs": [],
      "name": "ExpectedPause",
      "type": "error"
    },
    {
      "inputs": [
        {
          "internalType": "address",
          "name": "owner",
          "type": "address"
        }
      ],
      "name": "OwnableInvalidOwner",
      "type": "error"
    },
    {
      "inputs": [
        {
          "internalType": "address",
          "name": "account",
          "type": "address"
        }
      ],
      "name": "OwnableUnauthorizedAccount",
      "type": "error"
    },
    {
      "inputs": [],
      "name": "ReentrancyGuardReentrantCall",
      "type": "error"
    },
    {
      "anonymous": false,
      "inputs": [
        {
          "indexed": true,
          "internalType": "address",
          "name": "owner",
          "type": "address"
        },
        {
          "indexed": true,
          "internalType": "address",
          "name": "approved",
          "type": "address"
        },
        {
          "indexed": true,
          "internalType": "uint256",
          "name": "tokenId",
          "type": "uint256"
        }
      ],
      "name": "Approval",
      "type": "event"
    },
    {
      "anonymous": false,
      "inputs": [
        {
          "indexed": true,
          "internalType": "address",
          "name": "owner",
          "type": "address"
        },
        {
          "indexed": true,
          "internalType": "address",
          "name": "operator",
          "type": "address"
        },
        {
          "indexed": false,
          "internalType": "bool",
          "name": "approved",
          "type": "bool"
        }
      ],
      "name": "ApprovalForAll",
      "type": "event"
    },
    {
      "anonymous": false,
      "inputs": [
        {
          "indexed": false,
          "internalType": "uint256",
          "name": "_fromTokenId",
          "type": "uint256"
        },
        {
          "indexed": false,
          "internalType": "uint256",
          "name": "_toTokenId",
          "type": "uint256"
        }
      ],
      "name": "BatchMetadataUpdate",
      "type": "event"
    },
    {
      "anonymous": false,
      "inputs": [
        {
          "indexed": false,
          "internalType": "uint256",
          "name": "_tokenId",
          "type": "uint256"
        }
      ],
      "name": "MetadataUpdate",
      "type": "event"
    },
    {
      "anonymous": false,
      "inputs": [
        {
          "indexed": true,
          "internalType": "address",
          "name": "previousOwner",
          "type": "address"
        },
        {
          "indexed": true,
          "internalType": "address",
          "name": "newOwner",
          "type": "address"
        }
      ],
      "name": "OwnershipTransferred",
      "type": "event"
    },
    {
      "anonymous": false,
      "inputs": [
        {
          "indexed": false,
          "internalType": "address",
          "name": "account",
          "type": "address"
        }
      ],
      "name": "Paused",
      "type": "event"
    },
    {
      "anonymous": false,
      "inputs": [
        {
          "indexed": true,
          "internalType": "uint256",
          "name": "tokenId",
          "type": "uint256"
        },
        {
          "indexed": true,
          "internalType": "address",
          "name": "seller",
          "type": "address"
        }
      ],
      "name": "PromptDelisted",
      "type": "event"
    },
    {
      "anonymous": false,
      "inputs": [
        {
          "indexed": true,
          "internalType": "uint256",
          "name": "tokenId",
          "type": "uint256"
        },
        {
          "indexed": true,
          "internalType": "address",
          "name": "seller",
          "type": "address"
        },
        {
          "indexed": false,
          "internalType": "uint256",
          "name": "price",
          "type": "uint256"
        }
      ],
      "name": "PromptListed",
      "type": "event"
    },
    {
      "anonymous": false,
      "inputs": [
        {
          "indexed": true,
          "internalType": "uint256",
          "name": "tokenId",
          "type": "uint256"
        },
        {
          "indexed": true,
          "internalType": "address",
          "name": "creator",
          "type": "address"
        },
        {
          "indexed": false,
          "internalType": "string",
          "name": "title",
          "type": "string"
        },
        {
          "indexed": false,
          "internalType": "string",
          "name": "platform",
          "type": "string"
        },
        {
          "indexed": false,
          "internalType": "uint256",
          "name": "price",
          "type": "uint256"
        },
        {
          "indexed": false,
          "internalType": "string",
          "name": "tokenURI",
          "type": "string"
        }
      ],
      "name": "PromptMinted",
      "type": "event"
    },
    {
      "anonymous": false,
      "inputs": [
        {
          "indexed": true,
          "internalType": "uint256",
          "name": "tokenId",
          "type": "uint256"
        },
        {
          "indexed": true,
          "internalType": "address",
          "name": "seller",
          "type": "address"
        },
        {
          "indexed": true,
          "internalType": "address",
          "name": "buyer",
          "type": "address"
        },
        {
          "indexed": false,
          "internalType": "uint256",
          "name": "price",
          "type": "uint256"
        }
      ],
      "name": "PromptSold",
      "type": "event"
    },
    {
      "anonymous": false,
      "inputs": [
        {
          "indexed": true,
          "internalType": "address",
          "name": "from",
          "type": "address"
        },
        {
          "indexed": true,
          "internalType": "address",
          "name": "to",
          "type": "address"
        },
        {
          "indexed": true,
          "internalType": "uint256",
          "name": "tokenId",
          "type": "uint256"
        }
      ],
      "name": "Transfer",
      "type": "event"
    },
    {
      "anonymous": false,
      "inputs": [
        {
          "indexed": false,
          "internalType": "address",
          "name": "account",
          "type": "address"
        }
      ],
      "name": "Unpaused",
      "type": "event"
    },
    {
      "inputs": [
        {
          "internalType": "address",
          "name": "to",
          "type": "address"
        },
        {
          "internalType": "uint256",
          "name": "tokenId",
          "type": "uint256"
        }
      ],
      "name": "approve",
      "outputs": [],
      "stateMutability": "nonpayable",
      "type": "function"
    },
    {
      "inputs": [
        {
          "internalType": "address",
          "name": "owner",
          "type": "address"
        }
      ],
      "name": "balanceOf",
      "outputs": [
        {
          "internalType": "uint256",
          "name": "",
          "type": "uint256"
        }
      ],
      "stateMutability": "view",
      "type": "function"
    },
    {
      "inputs": [
        {
          "internalType": "uint256",
          "name": "tokenId",
          "type": "uint256"
        }
      ],
      "name": "buyPrompt",
      "outputs": [],
      "stateMutability": "payable",
      "type": "function"
    },
    {
      "inputs": [
        {
          "internalType": "uint256",
          "name": "tokenId",
          "type": "uint256"
        }
      ],
      "name": "delistFromSale",
      "outputs": [],
      "stateMutability": "nonpayable",
      "type": "function"
    },
    {
      "inputs": [],
      "name": "feeRecipient",
      "outputs": [
        {
          "internalType": "address",
          "name": "",
          "type": "address"
        }
      ],
      "stateMutability": "view",
      "type": "function"
    },
    {
      "inputs": [
        {
          "internalType": "uint256",
          "name": "tokenId",
          "type": "uint256"
        }
      ],
      "name": "getApproved",
      "outputs": [
        {
          "internalType": "address",
          "name": "",
          "type": "address"
        }
      ],
      "stateMutability": "view",
      "type": "function"
    },
    {
      "inputs": [
        {
          "internalType": "uint256",
          "name": "tokenId",
          "type": "uint256"
        }
      ],
      "name": "getPromptData",
      "outputs": [
        {
          "components": [
            {
              "internalType": "string",
              "name": "title",
              "type": "string"
            },
            {
              "internalType": "string",
              "name": "platform",
              "type": "string"
            },
            {
              "internalType": "string",
              "name": "description",
              "type": "string"
            },
            {
              "internalType": "string",
              "name": "promptText",
              "type": "string"
            },
            {
              "internalType": "address",
              "name": "creator",
              "type": "address"
            },
            {
              "internalType": "uint256",
              "name": "createdAt",
              "type": "uint256"
            },
            {
              "internalType": "bool",
              "name": "includeMedia",
              "type": "bool"
            },
            {
              "internalType": "bool",
              "name": "includeOutputSample",
              "type": "bool"
            },
            {
              "internalType": "bytes32",
              "name": "promptHash",
              "type": "bytes32"
            }
          ],
          "internalType": "struct AIPromptNFT.PromptData",
          "name": "",
          "type": "tuple"
        }
      ],
      "stateMutability": "view",
      "type": "function"
    },
    {
      "inputs": [
        {
          "internalType": "uint256",
          "name": "tokenId",
          "type": "uint256"
        }
      ],
      "name": "getSaleData",
      "outputs": [
        {
          "components": [
            {
              "internalType": "uint256",
              "name": "price",
              "type": "uint256"
            },
            {
              "internalType": "bool",
              "name": "isForSale",
              "type": "bool"
            },
            {
              "internalType": "address",
              "name": "seller",
              "type": "address"
            }
          ],
          "internalType": "struct AIPromptNFT.SaleData",
          "name": "",
          "type": "tuple"
        }
      ],
      "stateMutability": "view",
      "type": "function"
    },
    {
      "inputs": [
        {
          "internalType": "address",
          "name": "creator",
          "type": "address"
        }
      ],
      "name": "getTokensByCreator",
      "outputs": [
        {
          "internalType": "uint256[]",
          "name": "",
          "type": "uint256[]"
        }
      ],
      "stateMutability": "view",
      "type": "function"
    },
    {
      "inputs": [
        {
          "internalType": "address",
          "name": "owner",
          "type": "address"
        }
      ],
      "name": "getTokensByOwner",
      "outputs": [
        {
          "internalType": "uint256[]",
          "name": "",
          "type": "uint256[]"
        }
      ],
      "stateMutability": "view",
      "type": "function"
    },
    {
      "inputs": [],
      "name": "getTokensForSale",
      "outputs": [
        {
          "internalType": "uint256[]",
          "name": "",
          "type": "uint256[]"
        }
      ],
      "stateMutability": "view",
      "type": "function"
    },
    {
      "inputs": [
        {
          "internalType": "address",
          "name": "owner",
          "type": "address"
        },
        {
          "internalType": "address",
          "name": "operator",
          "type": "address"
        }
      ],
      "name": "isApprovedForAll",
      "outputs": [
        {
          "internalType": "bool",
          "name": "",
          "type": "bool"
        }
      ],
      "stateMutability": "view",
      "type": "function"
    },
    {
      "inputs": [
        {
          "internalType": "uint256",
          "name": "tokenId",
          "type": "uint256"
        },
        {
          "internalType": "uint256",
          "name": "price",
          "type": "uint256"
        }
      ],
      "name": "listForSale",
      "outputs": [],
      "stateMutability": "nonpayable",
      "type": "function"
    },
    {
      "inputs": [
        {
          "internalType": "string",
          "name": "title",
          "type": "string"
        },
        {
          "internalType": "string",
          "name": "platform",
          "type": "string"
        },
        {
          "internalType": "string",
          "name": "description",
          "type": "string"
        },
        {
          "internalType": "string",
          "name": "promptText",
          "type": "string"
        },
        {
          "internalType": "string",
          "name": "tokenURI_",
          "type": "string"
        },
        {
          "internalType": "uint256",
          "name": "price",
          "type": "uint256"
        },
        {
          "internalType": "uint96",
          "name": "royaltyPercent",
          "type": "uint96"
        },
        {
          "internalType": "bool",
          "name": "includeMedia",
          "type": "bool"
        },
        {
          "internalType": "bool",
          "name": "includeOutputSample",
          "type": "bool"
        }
      ],
      "name": "mintPrompt",
      "outputs": [],
      "stateMutability": "payable",
      "type": "function"
    },
    {
      "inputs": [],
      "name": "name",
      "outputs": [
        {
          "internalType": "string",
          "name": "",
          "type": "string"
        }
      ],
      "stateMutability": "view",
      "type": "function"
    },
    {
      "inputs": [],
      "name": "owner",
      "outputs": [
        {
          "internalType": "address",
          "name": "",
          "type": "address"
        }
      ],
      "stateMutability": "view",
      "type": "function"
    },
    {
      "inputs": [
        {
          "internalType": "uint256",
          "name": "tokenId",
          "type": "uint256"
        }
      ],
      "name": "ownerOf",
      "outputs": [
        {
          "internalType": "address",
          "name": "",
          "type": "address"
        }
      ],
      "stateMutability": "view",
      "type": "function"
    },
    {
      "inputs": [],
      "name": "pause",
      "outputs": [],
      "stateMutability": "nonpayable",
      "type": "function"
    },
    {
      "inputs": [],
      "name": "paused",
      "outputs": [
        {
          "internalType": "bool",
          "name": "",
          "type": "bool"
        }
      ],
      "stateMutability": "view",
      "type": "function"
    },
    {
      "inputs": [],
      "name": "platformFeePercent",
      "outputs": [
        {
          "internalType": "uint256",
          "name": "",
          "type": "uint256"
        }
      ],
      "stateMutability": "view",
      "type": "function"
    },
    {
      "inputs": [
        {
          "internalType": "bytes32",
          "name": "",
          "type": "bytes32"
        }
      ],
      "name": "promptExists",
      "outputs": [
        {
          "internalType": "bool",
          "name": "",
          "type": "bool"
        }
      ],
      "stateMutability": "view",
      "type": "function"
    },
    {
      "inputs": [
        {
          "internalType": "uint256",
          "name": "",
          "type": "uint256"
        }
      ],
      "name": "prompts",
      "outputs": [
        {
          "internalType": "string",
          "name": "title",
          "type": "string"
        },
        {
          "internalType": "string",
          "name": "platform",
          "type": "string"
        },
        {
          "internalType": "string",
          "name": "description",
          "type": "string"
        },
        {
          "internalType": "string",
          "name": "promptText",
          "type": "string"
        },
        {
          "internalType": "address",
          "name": "creator",
          "type": "address"
        },
        {
          "internalType": "uint256",
          "name": "createdAt",
          "type": "uint256"
        },
        {
          "internalType": "bool",
          "name": "includeMedia",
          "type": "bool"
        },
        {
          "internalType": "bool",
          "name": "includeOutputSample",
          "type": "bool"
        },
        {
          "internalType": "bytes32",
          "name": "promptHash",
          "type": "bytes32"
        }
      ],
      "stateMutability": "view",
      "type": "function"
    },
    {
      "inputs": [],
      "name": "renounceOwnership",
      "outputs": [],
      "stateMutability": "nonpayable",
      "type": "function"
    },
    {
      "inputs": [
        {
          "internalType": "uint256",
          "name": "tokenId",
          "type": "uint256"
        },
        {
          "internalType": "uint256",
          "name": "salePrice",
          "type": "uint256"
        }
      ],
      "name": "royaltyInfo",
      "outputs": [
        {
          "internalType": "address",
          "name": "receiver",
          "type": "address"
        },
        {
          "internalType": "uint256",
          "name": "amount",
          "type": "uint256"
        }
      ],
      "stateMutability": "view",
      "type": "function"
    },
    {
      "inputs": [
        {
          "internalType": "address",
          "name": "from",
          "type": "address"
        },
        {
          "internalType": "address",
          "name": "to",
          "type": "address"
        },
        {
          "internalType": "uint256",
          "name": "tokenId",
          "type": "uint256"
        }
      ],
      "name": "safeTransferFrom",
      "outputs": [],
      "stateMutability": "nonpayable",
      "type": "function"
    },
    {
      "inputs": [
        {
          "internalType": "address",
          "name": "from",
          "type": "address"
        },
        {
          "internalType": "address",
          "name": "to",
          "type": "address"
        },
        {
          "internalType": "uint256",
          "name": "tokenId",
          "type": "uint256"
        },
        {
          "internalType": "bytes",
          "name": "data",
          "type": "bytes"
        }
      ],
      "name": "safeTransferFrom",
      "outputs": [],
      "stateMutability": "nonpayable",
      "type": "function"
    },
    {
      "inputs": [
        {
          "internalType": "uint256",
          "name": "",
          "type": "uint256"
        }
      ],
      "name": "sales",
      "outputs": [
        {
          "internalType": "uint256",
          "name": "price",
          "type": "uint256"
        },
        {
          "internalType": "bool",
          "name": "isForSale",
          "type": "bool"
        },
        {
          "internalType": "address",
          "name": "seller",
          "type": "address"
        }
      ],
      "stateMutability": "view",
      "type": "function"
    },
    {
      "inputs": [
        {
          "internalType": "address",
          "name": "operator",
          "type": "address"
        },
        {
          "internalType": "bool",
          "name": "approved",
          "type": "bool"
        }
      ],
      "name": "setApprovalForAll",
      "outputs": [],
      "stateMutability": "nonpayable",
      "type": "function"
    },
    {
      "inputs": [
        {
          "internalType": "address",
          "name": "_feeRecipient",
          "type": "address"
        }
      ],
      "name": "setFeeRecipient",
      "outputs": [],
      "stateMutability": "nonpayable",
      "type": "function"
    },
    {
      "inputs": [
        {
          "internalType": "uint256",
          "name": "_feePercent",
          "type": "uint256"
        }
      ],
      "name": "setPlatformFee",
      "outputs": [],
      "stateMutability": "nonpayable",
      "type": "function"
    },
    {
      "inputs": [
        {
          "internalType": "bytes4",
          "name": "interfaceId",
          "type": "bytes4"
        }
      ],
      "name": "supportsInterface",
      "outputs": [
        {
          "internalType": "bool",
          "name": "",
          "type": "bool"
        }
      ],
      "stateMutability": "view",
      "type": "function"
    },
    {
      "inputs": [],
      "name": "symbol",
      "outputs": [
        {
          "internalType": "string",
          "name": "",
          "type": "string"
        }
      ],
      "stateMutability": "view",
      "type": "function"
    },
    {
      "inputs": [
        {
          "internalType": "uint256",
          "name": "tokenId",
          "type": "uint256"
        }
      ],
      "name": "tokenURI",
      "outputs": [
        {
          "internalType": "string",
          "name": "",
          "type": "string"
        }
      ],
      "stateMutability": "view",
      "type": "function"
    },
    {
      "inputs": [],
      "name": "totalSupply",
      "outputs": [
        {
          "internalType": "uint256",
          "name": "",
          "type": "uint256"
        }
      ],
      "stateMutability": "view",
      "type": "function"
    },
    {
      "inputs": [
        {
          "internalType": "address",
          "name": "from",
          "type": "address"
        },
        {
          "internalType": "address",
          "name": "to",
          "type": "address"
        },
        {
          "internalType": "uint256",
          "name": "tokenId",
          "type": "uint256"
        }
      ],
      "name": "transferFrom",
      "outputs": [],
      "stateMutability": "nonpayable",
      "type": "function"
    },
    {
      "inputs": [
        {
          "internalType": "address",
          "name": "newOwner",
          "type": "address"
        }
      ],
      "name": "transferOwnership",
      "outputs": [],
      "stateMutability": "nonpayable",
      "type": "function"
    },
    {
      "inputs": [],
      "name": "unpause",
      "outputs": [],
      "stateMutability": "nonpayable",
      "type": "function"
    },
    {
      "inputs": [
        {
          "internalType": "uint256",
          "name": "tokenId",
          "type": "uint256"
        },
        {
          "internalType": "uint256",
          "name": "newPrice",
          "type": "uint256"
        }
      ],
      "name": "updatePrice",
      "outputs": [],
      "stateMutability": "nonpayable",
      "type": "function"
    },
    {
      "inputs": [],
      "name": "withdrawFees",
      "outputs": [],
      "stateMutability": "nonpayable",
      "type": "function"
    }
  ],
  "bytecode": "0x608060405260fa600d553480156200001657600080fd5b50604051620064b3380380620064b383398181016040528101906200003c9190620003fc565b3383838160029081620000509190620006e1565b508060039081620000629190620006e1565b505050600073ffffffffffffffffffffffffffffffffffffffff168173ffffffffffffffffffffffffffffffffffffffff1603620000da5760006040517f1e4fbdf7000000000000000000000000000000000000000000000000000000008152600401620000d19190620007d9565b60405180910390fd5b620000eb816200013e60201b60201c565b506001600a8190555080600e60006101000a81548173ffffffffffffffffffffffffffffffffffffffff021916908373ffffffffffffffffffffffffffffffffffffffff160217905550505050620007f6565b6000600960009054906101000a900473ffffffffffffffffffffffffffffffffffffffff16905081600960006101000a81548173ffffffffffffffffffffffffffffffffffffffff021916908373ffffffffffffffffffffffffffffffffffffffff1602179055508173ffffffffffffffffffffffffffffffffffffffff168173ffffffffffffffffffffffffffffffffffffffff167f8be0079c531659141344cd1fd0a4f28419497f9722a3daafe3b4186f6b6457e060405160405180910390a35050565b6000604051905090565b600080fd5b600080fd5b600080fd5b600080fd5b6000601f19601f8301169050919050565b7f4e487b7100000000000000000000000000000000000000000000000000000000600052604160045260246000fd5b6200026d8262000222565b810181811067ffffffffffffffff821117156200028f576200028e62000233565b5b80604052505050565b6000620002a462000204565b9050620002b2828262000262565b919050565b600067ffffffffffffffff821115620002d557620002d462000233565b5b620002e08262000222565b9050602081019050919050565b60005b838110156200030d578082015181840152602081019050620002f0565b60008484015250505050565b6000620003306200032a84620002b7565b62000298565b9050828152602081018484840111156200034f576200034e6200021d565b5b6200035c848285620002ed565b509392505050565b600082601f8301126200037c576200037b62000218565b5b81516200038e84826020860162000319565b91505092915050565b600073ffffffffffffffffffffffffffffffffffffffff82169050919050565b6000620003c48262000397565b9050919050565b620003d681620003b7565b8114620003e257600080fd5b50565b600081519050620003f681620003cb565b92915050565b6000806000606084860312156200041857620004176200020e565b5b600084015167ffffffffffffffff81111562000439576200043862000213565b5b620004478682870162000364565b935050602084015167ffffffffffffffff8111156200046b576200046a62000213565b5b620004798682870162000364565b92505060406200048c86828701620003e5565b9150509250925092565b600081519050919050565b7f4e487b7100000000000000000000000000000000000000000000000000000000600052602260045260246000fd5b60006002820490506001821680620004e957607f821691505b602082108103620004ff57620004fe620004a1565b5b50919050565b60008190508160005260206000209050919050565b60006020601f8301049050919050565b600082821b905092915050565b600060088302620005697fffffffffffffffffffffffffffffffffffffffffffffffffffffffffffffffff826200052a565b6200057586836200052a565b95508019841693508086168417925050509392505050565b6000819050919050565b6000819050919050565b6000620005c2620005bc620005b6846200058d565b62000597565b6200058d565b9050919050565b6000819050919050565b620005de83620005a1565b620005f6620005ed82620005c9565b84845462000537565b825550505050565b600090565b6200060d620005fe565b6200061a818484620005d3565b505050565b5b8181101562000642576200063660008262000603565b60018101905062000620565b5050565b601f82111562000691576200065b8162000505565b62000666846200051a565b8101602085101562000676578190505b6200068e62000685856200051a565b8301826200061f565b50505b505050565b600082821c905092915050565b6000620006b66000198460080262000696565b1980831691505092915050565b6000620006d18383620006a3565b9150826002028217905092915050565b620006ec8262000496565b67ffffffffffffffff81111562000708576200070762000233565b5b620007148254620004d0565b6200072182828562000646565b600060209050601f83116001811462000759576000841562000744578287015190505b620007508582620006c3565b865550620007c0565b601f198416620007698662000505565b60005b8281101562000793578489015182556001820191506020850194506020810190506200076c565b86831015620007b35784890151620007af601f891682620006a3565b8355505b6001600288020188555050505b505050505050565b620007d381620003b7565b82525050565b6000602082019050620007f06000830184620007c8565b92915050565b615cad80620008066000396000f3fe6080604052600436106102305760003560e01c8063715018a61161012e578063b88d4fde116100ab578063d5c712751161006f578063d5c7127514610850578063e74b981b1461088d578063e80d7fec146108b6578063e985e9c5146108df578063f2fde38b1461091c57610230565b8063b88d4fde1461074c578063bc1ca80614610775578063c4aa418b14610791578063c87b56dd146107ce578063d4cf9af71461080b57610230565b80638da5cb5b116100f25780638da5cb5b1461066557806395791aeb1461069057806395d89b41146106b9578063a22cb465146106e4578063b5f522f71461070d57610230565b8063715018a6146105a657806382367b2d146105bd5780638456cb59146105e657806386630b7b146105fd5780638c639a851461063a57610230565b80633d8a3583116101bc578063476343ee11610180578063476343ee146104bf5780635c975abb146104d65780636352211e1461050157806365e4e1c01461053e57806370a082311461056957610230565b80633d8a3583146103da5780633f4ba83a1461041757806340398d671461042e57806342842e0e1461046b578063469048401461049457610230565b806312e8e2c31161020357806312e8e2c31461030357806318160ddd1461032c5780631e1a082c1461035757806323b872dd146103735780632a55205a1461039c57610230565b806301ffc9a71461023557806306fdde0314610272578063081812fc1461029d578063095ea7b3146102da575b600080fd5b34801561024157600080fd5b5061025c600480360381019061025791906143a4565b610945565b60405161026991906143ec565b60405180910390f35b34801561027e57600080fd5b50610287610957565b6040516102949190614497565b60405180910390f35b3480156102a957600080fd5b506102c460048036038101906102bf91906144ef565b6109e9565b6040516102d1919061455d565b60405180910390f35b3480156102e657600080fd5b5061030160048036038101906102fc91906145a4565b610a05565b005b34801561030f57600080fd5b5061032a600480360381019061032591906144ef565b610a1b565b005b34801561033857600080fd5b50610341610a72565b60405161034e91906145f3565b60405180910390f35b610371600480360381019061036c91906144ef565b610a7c565b005b34801561037f57600080fd5b5061039a6004803603810190610395919061460e565b610f02565b005b3480156103a857600080fd5b506103c360048036038101906103be9190614661565b611004565b6040516103d19291906146a1565b60405180910390f35b3480156103e657600080fd5b5061040160048036038101906103fc9190614700565b611132565b60405161040e91906143ec565b60405180910390f35b34801561042357600080fd5b5061042c611152565b005b34801561043a57600080fd5b506104556004803603810190610450919061472d565b611164565b6040516104629190614818565b60405180910390f35b34801561047757600080fd5b50610492600480360381019061048d919061460e565b611268565b005b3480156104a057600080fd5b506104a9611288565b6040516104b6919061455d565b60405180910390f35b3480156104cb57600080fd5b506104d46112ae565b005b3480156104e257600080fd5b506104eb61136a565b6040516104f891906143ec565b60405180910390f35b34801561050d57600080fd5b50610528600480360381019061052391906144ef565b611381565b604051610535919061455d565b60405180910390f35b34801561054a57600080fd5b50610553611393565b6040516105609190614818565b60405180910390f35b34801561057557600080fd5b50610590600480360381019061058b919061472d565b6114c3565b60405161059d91906145f3565b60405180910390f35b3480156105b257600080fd5b506105bb61157d565b005b3480156105c957600080fd5b506105e460048036038101906105df9190614661565b611591565b005b3480156105f257600080fd5b506105fb611725565b005b34801561060957600080fd5b50610624600480360381019061061f91906144ef565b611737565b604051610631919061489a565b60405180910390f35b34801561064657600080fd5b5061064f611856565b60405161065c91906145f3565b60405180910390f35b34801561067157600080fd5b5061067a61185c565b604051610687919061455d565b60405180910390f35b34801561069c57600080fd5b506106b760048036038101906106b291906144ef565b611886565b005b3480156106c557600080fd5b506106ce6119fb565b6040516106db9190614497565b60405180910390f35b3480156106f057600080fd5b5061070b600480360381019061070691906148e1565b611a8d565b005b34801561071957600080fd5b50610734600480360381019061072f91906144ef565b611aa3565b60405161074393929190614921565b60405180910390f35b34801561075857600080fd5b50610773600480360381019061076e9190614a8d565b611afa565b005b61078f600480360381019061078a9190614bf5565b611b1f565b005b34801561079d57600080fd5b506107b860048036038101906107b391906144ef565b611f5c565b6040516107c59190614e7e565b60405180910390f35b3480156107da57600080fd5b506107f560048036038101906107f091906144ef565b6122e9565b6040516108029190614497565b60405180910390f35b34801561081757600080fd5b50610832600480360381019061082d91906144ef565b6122fb565b60405161084799989796959493929190614eaf565b60405180910390f35b34801561085c57600080fd5b506108776004803603810190610872919061472d565b6125a3565b6040516108849190614818565b60405180910390f35b34801561089957600080fd5b506108b460048036038101906108af919061472d565b612755565b005b3480156108c257600080fd5b506108dd60048036038101906108d89190614661565b612810565b005b3480156108eb57600080fd5b5061090660048036038101906109019190614f58565b612a45565b60405161091391906143ec565b60405180910390f35b34801561092857600080fd5b50610943600480360381019061093e919061472d565b612ad9565b005b600061095082612b5f565b9050919050565b60606002805461096690614fc7565b80601f016020809104026020016040519081016040528092919081815260200182805461099290614fc7565b80156109df5780601f106109b4576101008083540402835291602001916109df565b820191906000526020600020905b8154815290600101906020018083116109c257829003601f168201915b5050505050905090565b60006109f482612b71565b506109fe82612bf9565b9050919050565b610a178282610a12612c36565b612c3e565b5050565b610a23612c50565b6103e8811115610a68576040517f08c379a0000000000000000000000000000000000000000000000000000000008152600401610a5f90615044565b60405180910390fd5b80600d8190555050565b6000600c54905090565b610a84612cd7565b610a8c612d1d565b600060106000838152602001908152602001600020604051806060016040529081600082015481526020016001820160009054906101000a900460ff161515151581526020016001820160019054906101000a900473ffffffffffffffffffffffffffffffffffffffff1673ffffffffffffffffffffffffffffffffffffffff1673ffffffffffffffffffffffffffffffffffffffff168152505090508060200151610b6d576040517f08c379a0000000000000000000000000000000000000000000000000000000008152600401610b64906150b0565b60405180910390fd5b8060000151341015610bb4576040517f08c379a0000000000000000000000000000000000000000000000000000000008152600401610bab9061511c565b60405180910390fd5b806040015173ffffffffffffffffffffffffffffffffffffffff163373ffffffffffffffffffffffffffffffffffffffff1603610c26576040517f08c379a0000000000000000000000000000000000000000000000000000000008152600401610c1d90615188565b60405180910390fd5b60008160400151905060008260000151905060006010600086815260200190815260200160002060010160006101000a81548160ff02191690831515021790555060006010600086815260200190815260200160002060000181905550600080610c908684611004565b915091506000612710600d5485610ca791906151d7565b610cb19190615248565b90506000818386610cc29190615279565b610ccc9190615279565b9050610cd986338a612d5e565b600083118015610d1557508573ffffffffffffffffffffffffffffffffffffffff168473ffffffffffffffffffffffffffffffffffffffff1614155b15610d66578373ffffffffffffffffffffffffffffffffffffffff166108fc849081150290604051600060405180830381858888f19350505050158015610d60573d6000803e3d6000fd5b50610d75565b8281610d7291906152ad565b90505b6000821115610de857600e60009054906101000a900473ffffffffffffffffffffffffffffffffffffffff1673ffffffffffffffffffffffffffffffffffffffff166108fc839081150290604051600060405180830381858888f19350505050158015610de6573d6000803e3d6000fd5b505b8573ffffffffffffffffffffffffffffffffffffffff166108fc829081150290604051600060405180830381858888f19350505050158015610e2e573d6000803e3d6000fd5b5084341115610e8a573373ffffffffffffffffffffffffffffffffffffffff166108fc8634610e5d9190615279565b9081150290604051600060405180830381858888f19350505050158015610e88573d6000803e3d6000fd5b505b3373ffffffffffffffffffffffffffffffffffffffff168673ffffffffffffffffffffffffffffffffffffffff16897ff2b620aa33d07c30c8d89fabd167371d01ce8036f21fc7049b4213ed12935bb388604051610ee891906145f3565b60405180910390a450505050505050610eff612ecb565b50565b600073ffffffffffffffffffffffffffffffffffffffff168273ffffffffffffffffffffffffffffffffffffffff1603610f745760006040517f64a0ae92000000000000000000000000000000000000000000000000000000008152600401610f6b919061455d565b60405180910390fd5b6000610f888383610f83612c36565b612ed5565b90508373ffffffffffffffffffffffffffffffffffffffff168173ffffffffffffffffffffffffffffffffffffffff1614610ffe578382826040517f64283d7b000000000000000000000000000000000000000000000000000000008152600401610ff5939291906152e1565b60405180910390fd5b50505050565b600080600060016000868152602001908152602001600020905060008160000160009054906101000a900473ffffffffffffffffffffffffffffffffffffffff16905060008260000160149054906101000a90046bffffffffffffffffffffffff169050600073ffffffffffffffffffffffffffffffffffffffff168273ffffffffffffffffffffffffffffffffffffffff16036110e3576000800160009054906101000a900473ffffffffffffffffffffffffffffffffffffffff1691506000800160149054906101000a90046bffffffffffffffffffffffff1690505b60006110ed6130ef565b6bffffffffffffffffffffffff16826bffffffffffffffffffffffff168861111591906151d7565b61111f9190615248565b9050828195509550505050509250929050565b60116020528060005260406000206000915054906101000a900460ff1681565b61115a612c50565b6111626130f9565b565b60606000600c5490506000611178846114c3565b905060008167ffffffffffffffff81111561119657611195614962565b5b6040519080825280602002602001820160405280156111c45781602001602082028036833780820191505090505b5090506000805b84811080156111d957508382105b1561125b578673ffffffffffffffffffffffffffffffffffffffff166111fe8261315c565b73ffffffffffffffffffffffffffffffffffffffff1603611248578083838151811061122d5761122c615318565b5b602002602001018181525050818061124490615347565b9250505b808061125390615347565b9150506111cb565b5081945050505050919050565b61128383838360405180602001604052806000815250611afa565b505050565b600e60009054906101000a900473ffffffffffffffffffffffffffffffffffffffff1681565b6112b6612c50565b6000479050600081116112fe576040517f08c379a00000000000000000000000000000000000000000000000000000000081526004016112f5906153db565b60405180910390fd5b600e60009054906101000a900473ffffffffffffffffffffffffffffffffffffffff1673ffffffffffffffffffffffffffffffffffffffff166108fc829081150290604051600060405180830381858888f19350505050158015611366573d6000803e3d6000fd5b5050565b6000600b60009054906101000a900460ff16905090565b600061138c82612b71565b9050919050565b60606000600c5490506000805b828110156113f3576010600082815260200190815260200160002060010160009054906101000a900460ff16156113e05781806113dc90615347565b9250505b80806113eb90615347565b9150506113a0565b5060008167ffffffffffffffff8111156114105761140f614962565b5b60405190808252806020026020018201604052801561143e5781602001602082028036833780820191505090505b5090506000805b848110156114b8576010600082815260200190815260200160002060010160009054906101000a900460ff16156114a5578083838151811061148a57611489615318565b5b60200260200101818152505081806114a190615347565b9250505b80806114b090615347565b915050611445565b508194505050505090565b60008073ffffffffffffffffffffffffffffffffffffffff168273ffffffffffffffffffffffffffffffffffffffff16036115365760006040517f89c62b6400000000000000000000000000000000000000000000000000000000815260040161152d919061455d565b60405180910390fd5b600560008373ffffffffffffffffffffffffffffffffffffffff1673ffffffffffffffffffffffffffffffffffffffff168152602001908152602001600020549050919050565b611585612c50565b61158f6000613199565b565b813373ffffffffffffffffffffffffffffffffffffffff166115b282611381565b73ffffffffffffffffffffffffffffffffffffffff1614611608576040517f08c379a00000000000000000000000000000000000000000000000000000000081526004016115ff90615447565b60405180910390fd5b611610612d1d565b6010600084815260200190815260200160002060010160009054906101000a900460ff16611673576040517f08c379a000000000000000000000000000000000000000000000000000000000815260040161166a906154b3565b60405180910390fd5b600082116116b6576040517f08c379a00000000000000000000000000000000000000000000000000000000081526004016116ad9061551f565b60405180910390fd5b8160106000858152602001908152602001600020600001819055503373ffffffffffffffffffffffffffffffffffffffff16837f881c25d598c5c210fd81368e0ed1e9bab4d974c8fd7d6007ad4bfd230b0237e18460405161171891906145f3565b60405180910390a3505050565b61172d612c50565b61173561325f565b565b61173f614296565b600073ffffffffffffffffffffffffffffffffffffffff166117608361315c565b73ffffffffffffffffffffffffffffffffffffffff16036117b6576040517f08c379a00000000000000000000000000000000000000000000000000000000081526004016117ad9061558b565b60405180910390fd5b60106000838152602001908152602001600020604051806060016040529081600082015481526020016001820160009054906101000a900460ff161515151581526020016001820160019054906101000a900473ffffffffffffffffffffffffffffffffffffffff1673ffffffffffffffffffffffffffffffffffffffff1673ffffffffffffffffffffffffffffffffffffffff16815250509050919050565b600d5481565b6000600960009054906101000a900473ffffffffffffffffffffffffffffffffffffffff16905090565b803373ffffffffffffffffffffffffffffffffffffffff166118a782611381565b73ffffffffffffffffffffffffffffffffffffffff16146118fd576040517f08c379a00000000000000000000000000000000000000000000000000000000081526004016118f490615447565b60405180910390fd5b611905612d1d565b6010600083815260200190815260200160002060010160009054906101000a900460ff16611968576040517f08c379a000000000000000000000000000000000000000000000000000000000815260040161195f906154b3565b60405180910390fd5b60006010600084815260200190815260200160002060010160006101000a81548160ff021916908315150217905550600060106000848152602001908152602001600020600001819055503373ffffffffffffffffffffffffffffffffffffffff16827ff0a02a8f7309024ee6953d8b168cd055150d66ec22d1411ad2653e9b8ac3c5c460405160405180910390a35050565b606060038054611a0a90614fc7565b80601f0160208091040260200160405190810160405280929190818152602001828054611a3690614fc7565b8015611a835780601f10611a5857610100808354040283529160200191611a83565b820191906000526020600020905b815481529060010190602001808311611a6657829003601f168201915b5050505050905090565b611a9f611a98612c36565b83836132c2565b5050565b60106020528060005260406000206000915090508060000154908060010160009054906101000a900460ff16908060010160019054906101000a900473ffffffffffffffffffffffffffffffffffffffff16905083565b611b05848484610f02565b611b19611b10612c36565b85858585613431565b50505050565b611b27612cd7565b611b2f612d1d565b60008633604051602001611b4492919061562f565b6040516020818303038152906040528051906020012090506011600082815260200190815260200160002060009054906101000a900460ff1615611bbd576040517f08c379a0000000000000000000000000000000000000000000000000000000008152600401611bb4906156a3565b60405180910390fd5b6107d0846bffffffffffffffffffffffff161115611c10576040517f08c379a0000000000000000000000000000000000000000000000000000000008152600401611c079061570f565b60405180910390fd5b6000600c549050600c6000815480929190611c2a90615347565b9190505550611c3933826135e2565b611c438188613600565b611c4e81338761365c565b6040518061012001604052808c81526020018b81526020018a81526020018981526020013373ffffffffffffffffffffffffffffffffffffffff1681526020014281526020018515158152602001841515815260200183815250600f60008381526020019081526020016000206000820151816000019081611cd091906158db565b506020820151816001019081611ce691906158db565b506040820151816002019081611cfc91906158db565b506060820151816003019081611d1291906158db565b5060808201518160040160006101000a81548173ffffffffffffffffffffffffffffffffffffffff021916908373ffffffffffffffffffffffffffffffffffffffff16021790555060a0820151816005015560c08201518160060160006101000a81548160ff02191690831515021790555060e08201518160060160016101000a81548160ff021916908315150217905550610100820151816007015590505060016011600084815260200190815260200160002060006101000a81548160ff0219169083151502179055506000861115611ef25760405180606001604052808781526020016001151581526020013373ffffffffffffffffffffffffffffffffffffffff16815250601060008381526020019081526020016000206000820151816000015560208201518160010160006101000a81548160ff02191690831515021790555060408201518160010160016101000a81548173ffffffffffffffffffffffffffffffffffffffff021916908373ffffffffffffffffffffffffffffffffffffffff1602179055509050503373ffffffffffffffffffffffffffffffffffffffff16817f881c25d598c5c210fd81368e0ed1e9bab4d974c8fd7d6007ad4bfd230b0237e188604051611ee991906145f3565b60405180910390a35b3373ffffffffffffffffffffffffffffffffffffffff16817ff4e883f9dc251228c8bb45787fab453f9bb0c02953772d10afcb487ea86ed3cd8d8d8a8c604051611f3f94939291906159ad565b60405180910390a35050611f51612ecb565b505050505050505050565b611f646142cf565b600073ffffffffffffffffffffffffffffffffffffffff16611f858361315c565b73ffffffffffffffffffffffffffffffffffffffff1603611fdb576040517f08c379a0000000000000000000000000000000000000000000000000000000008152600401611fd29061558b565b60405180910390fd5b600f60008381526020019081526020016000206040518061012001604052908160008201805461200a90614fc7565b80601f016020809104026020016040519081016040528092919081815260200182805461203690614fc7565b80156120835780601f1061205857610100808354040283529160200191612083565b820191906000526020600020905b81548152906001019060200180831161206657829003601f168201915b5050505050815260200160018201805461209c90614fc7565b80601f01602080910402602001604051908101604052809291908181526020018280546120c890614fc7565b80156121155780601f106120ea57610100808354040283529160200191612115565b820191906000526020600020905b8154815290600101906020018083116120f857829003601f168201915b5050505050815260200160028201805461212e90614fc7565b80601f016020809104026020016040519081016040528092919081815260200182805461215a90614fc7565b80156121a75780601f1061217c576101008083540402835291602001916121a7565b820191906000526020600020905b81548152906001019060200180831161218a57829003601f168201915b505050505081526020016003820180546121c090614fc7565b80601f01602080910402602001604051908101604052809291908181526020018280546121ec90614fc7565b80156122395780601f1061220e57610100808354040283529160200191612239565b820191906000526020600020905b81548152906001019060200180831161221c57829003601f168201915b505050505081526020016004820160009054906101000a900473ffffffffffffffffffffffffffffffffffffffff1673ffffffffffffffffffffffffffffffffffffffff1673ffffffffffffffffffffffffffffffffffffffff168152602001600582015481526020016006820160009054906101000a900460ff161515151581526020016006820160019054906101000a900460ff161515151581526020016007820154815250509050919050565b60606122f482613814565b9050919050565b600f60205280600052604060002060009150905080600001805461231e90614fc7565b80601f016020809104026020016040519081016040528092919081815260200182805461234a90614fc7565b80156123975780601f1061236c57610100808354040283529160200191612397565b820191906000526020600020905b81548152906001019060200180831161237a57829003601f168201915b5050505050908060010180546123ac90614fc7565b80601f01602080910402602001604051908101604052809291908181526020018280546123d890614fc7565b80156124255780601f106123fa57610100808354040283529160200191612425565b820191906000526020600020905b81548152906001019060200180831161240857829003601f168201915b50505050509080600201805461243a90614fc7565b80601f016020809104026020016040519081016040528092919081815260200182805461246690614fc7565b80156124b35780601f10612488576101008083540402835291602001916124b3565b820191906000526020600020905b81548152906001019060200180831161249657829003601f168201915b5050505050908060030180546124c890614fc7565b80601f01602080910402602001604051908101604052809291908181526020018280546124f490614fc7565b80156125415780601f1061251657610100808354040283529160200191612541565b820191906000526020600020905b81548152906001019060200180831161252457829003601f168201915b5050505050908060040160009054906101000a900473ffffffffffffffffffffffffffffffffffffffff16908060050154908060060160009054906101000a900460ff16908060060160019054906101000a900460ff16908060070154905089565b60606000600c5490506000805b82811015612643578473ffffffffffffffffffffffffffffffffffffffff16600f600083815260200190815260200160002060040160009054906101000a900473ffffffffffffffffffffffffffffffffffffffff1673ffffffffffffffffffffffffffffffffffffffff160361263057818061262c90615347565b9250505b808061263b90615347565b9150506125b0565b5060008167ffffffffffffffff8111156126605761265f614962565b5b60405190808252806020026020018201604052801561268e5781602001602082028036833780820191505090505b5090506000805b84811015612748578673ffffffffffffffffffffffffffffffffffffffff16600f600083815260200190815260200160002060040160009054906101000a900473ffffffffffffffffffffffffffffffffffffffff1673ffffffffffffffffffffffffffffffffffffffff1603612735578083838151811061271a57612719615318565b5b602002602001018181525050818061273190615347565b9250505b808061274090615347565b915050612695565b5081945050505050919050565b61275d612c50565b600073ffffffffffffffffffffffffffffffffffffffff168173ffffffffffffffffffffffffffffffffffffffff16036127cc576040517f08c379a00000000000000000000000000000000000000000000000000000000081526004016127c390615a53565b60405180910390fd5b80600e60006101000a81548173ffffffffffffffffffffffffffffffffffffffff021916908373ffffffffffffffffffffffffffffffffffffffff16021790555050565b813373ffffffffffffffffffffffffffffffffffffffff1661283182611381565b73ffffffffffffffffffffffffffffffffffffffff1614612887576040517f08c379a000000000000000000000000000000000000000000000000000000000815260040161287e90615447565b60405180910390fd5b61288f612d1d565b600082116128d2576040517f08c379a00000000000000000000000000000000000000000000000000000000081526004016128c99061551f565b60405180910390fd5b6010600084815260200190815260200160002060010160009054906101000a900460ff1615612936576040517f08c379a000000000000000000000000000000000000000000000000000000000815260040161292d90615abf565b60405180910390fd5b60405180606001604052808381526020016001151581526020013373ffffffffffffffffffffffffffffffffffffffff16815250601060008581526020019081526020016000206000820151816000015560208201518160010160006101000a81548160ff02191690831515021790555060408201518160010160016101000a81548173ffffffffffffffffffffffffffffffffffffffff021916908373ffffffffffffffffffffffffffffffffffffffff1602179055509050503373ffffffffffffffffffffffffffffffffffffffff16837f881c25d598c5c210fd81368e0ed1e9bab4d974c8fd7d6007ad4bfd230b0237e184604051612a3891906145f3565b60405180910390a3505050565b6000600760008473ffffffffffffffffffffffffffffffffffffffff1673ffffffffffffffffffffffffffffffffffffffff16815260200190815260200160002060008373ffffffffffffffffffffffffffffffffffffffff1673ffffffffffffffffffffffffffffffffffffffff16815260200190815260200160002060009054906101000a900460ff16905092915050565b612ae1612c50565b600073ffffffffffffffffffffffffffffffffffffffff168173ffffffffffffffffffffffffffffffffffffffff1603612b535760006040517f1e4fbdf7000000000000000000000000000000000000000000000000000000008152600401612b4a919061455d565b60405180910390fd5b612b5c81613199565b50565b6000612b6a82613927565b9050919050565b600080612b7d8361315c565b9050600073ffffffffffffffffffffffffffffffffffffffff168173ffffffffffffffffffffffffffffffffffffffff1603612bf057826040517f7e273289000000000000000000000000000000000000000000000000000000008152600401612be791906145f3565b60405180910390fd5b80915050919050565b60006006600083815260200190815260200160002060009054906101000a900473ffffffffffffffffffffffffffffffffffffffff169050919050565b600033905090565b612c4b8383836001613988565b505050565b612c58612c36565b73ffffffffffffffffffffffffffffffffffffffff16612c7661185c565b73ffffffffffffffffffffffffffffffffffffffff1614612cd557612c99612c36565b6040517f118cdaa7000000000000000000000000000000000000000000000000000000008152600401612ccc919061455d565b60405180910390fd5b565b6002600a5403612d13576040517f3ee5aeb500000000000000000000000000000000000000000000000000000000815260040160405180910390fd5b6002600a81905550565b612d2561136a565b15612d5c576040517fd93c066500000000000000000000000000000000000000000000000000000000815260040160405180910390fd5b565b600073ffffffffffffffffffffffffffffffffffffffff168273ffffffffffffffffffffffffffffffffffffffff1603612dd05760006040517f64a0ae92000000000000000000000000000000000000000000000000000000008152600401612dc7919061455d565b60405180910390fd5b6000612dde83836000612ed5565b9050600073ffffffffffffffffffffffffffffffffffffffff168173ffffffffffffffffffffffffffffffffffffffff1603612e5157816040517f7e273289000000000000000000000000000000000000000000000000000000008152600401612e4891906145f3565b60405180910390fd5b8373ffffffffffffffffffffffffffffffffffffffff168173ffffffffffffffffffffffffffffffffffffffff1614612ec5578382826040517f64283d7b000000000000000000000000000000000000000000000000000000008152600401612ebc939291906152e1565b60405180910390fd5b50505050565b6001600a81905550565b600080612ee18461315c565b9050600073ffffffffffffffffffffffffffffffffffffffff168373ffffffffffffffffffffffffffffffffffffffff1614612f2357612f22818486613b4d565b5b600073ffffffffffffffffffffffffffffffffffffffff168173ffffffffffffffffffffffffffffffffffffffff1614612fb457612f65600085600080613988565b6001600560008373ffffffffffffffffffffffffffffffffffffffff1673ffffffffffffffffffffffffffffffffffffffff168152602001908152602001600020600082825403925050819055505b600073ffffffffffffffffffffffffffffffffffffffff168573ffffffffffffffffffffffffffffffffffffffff1614613037576001600560008773ffffffffffffffffffffffffffffffffffffffff1673ffffffffffffffffffffffffffffffffffffffff168152602001908152602001600020600082825401925050819055505b846004600086815260200190815260200160002060006101000a81548173ffffffffffffffffffffffffffffffffffffffff021916908373ffffffffffffffffffffffffffffffffffffffff160217905550838573ffffffffffffffffffffffffffffffffffffffff168273ffffffffffffffffffffffffffffffffffffffff167fddf252ad1be2c89b69c2b068fc378daa952ba7f163c4a11628f55a4df523b3ef60405160405180910390a4809150509392505050565b6000612710905090565b613101613c11565b6000600b60006101000a81548160ff0219169083151502179055507f5db9ee0a495bf2e6ff9c91a7834c1ba4fdd244a5e8aa4e537bd38aeae4b073aa613145612c36565b604051613152919061455d565b60405180910390a1565b60006004600083815260200190815260200160002060009054906101000a900473ffffffffffffffffffffffffffffffffffffffff169050919050565b6000600960009054906101000a900473ffffffffffffffffffffffffffffffffffffffff16905081600960006101000a81548173ffffffffffffffffffffffffffffffffffffffff021916908373ffffffffffffffffffffffffffffffffffffffff1602179055508173ffffffffffffffffffffffffffffffffffffffff168173ffffffffffffffffffffffffffffffffffffffff167f8be0079c531659141344cd1fd0a4f28419497f9722a3daafe3b4186f6b6457e060405160405180910390a35050565b613267612d1d565b6001600b60006101000a81548160ff0219169083151502179055507f62e78cea01bee320cd4e420270b5ea74000d11b0c9f74754ebdbfc544b05a2586132ab612c36565b6040516132b8919061455d565b60405180910390a1565b600073ffffffffffffffffffffffffffffffffffffffff168273ffffffffffffffffffffffffffffffffffffffff160361333357816040517f5b08ba1800000000000000000000000000000000000000000000000000000000815260040161332a919061455d565b60405180910390fd5b80600760008573ffffffffffffffffffffffffffffffffffffffff1673ffffffffffffffffffffffffffffffffffffffff16815260200190815260200160002060008473ffffffffffffffffffffffffffffffffffffffff1673ffffffffffffffffffffffffffffffffffffffff16815260200190815260200160002060006101000a81548160ff0219169083151502179055508173ffffffffffffffffffffffffffffffffffffffff168373ffffffffffffffffffffffffffffffffffffffff167f17307eab39ab6107e8899845ad3d59bd9653f200f220920489ca2b5937696c318360405161342491906143ec565b60405180910390a3505050565b60008373ffffffffffffffffffffffffffffffffffffffff163b11156135db578273ffffffffffffffffffffffffffffffffffffffff1663150b7a02868685856040518563ffffffff1660e01b81526004016134909493929190615b34565b6020604051808303816000875af19250505080156134cc57506040513d601f19601f820116820180604052508101906134c99190615b95565b60015b613550573d80600081146134fc576040519150601f19603f3d011682016040523d82523d6000602084013e613501565b606091505b50600081510361354857836040517f64a0ae9200000000000000000000000000000000000000000000000000000000815260040161353f919061455d565b60405180910390fd5b805181602001fd5b63150b7a0260e01b7bffffffffffffffffffffffffffffffffffffffffffffffffffffffff1916817bffffffffffffffffffffffffffffffffffffffffffffffffffffffff1916146135d957836040517f64a0ae920000000000000000000000000000000000000000000000000000000081526004016135d0919061455d565b60405180910390fd5b505b5050505050565b6135fc828260405180602001604052806000815250613c51565b5050565b8060086000848152602001908152602001600020908161362091906158db565b507ff8e1a15aba9398e019f0b49df1a4fde98ee17ae345cb5f6b5e2c27f5033e8ce78260405161365091906145f3565b60405180910390a15050565b60006136666130ef565b6bffffffffffffffffffffffff16905080826bffffffffffffffffffffffff1611156136cd578382826040517fdfd1fc1b0000000000000000000000000000000000000000000000000000000081526004016136c493929190615bf3565b60405180910390fd5b600073ffffffffffffffffffffffffffffffffffffffff168373ffffffffffffffffffffffffffffffffffffffff1603613741578360006040517f969f0852000000000000000000000000000000000000000000000000000000008152600401613738929190615c2a565b60405180910390fd5b60405180604001604052808473ffffffffffffffffffffffffffffffffffffffff168152602001836bffffffffffffffffffffffff168152506001600086815260200190815260200160002060008201518160000160006101000a81548173ffffffffffffffffffffffffffffffffffffffff021916908373ffffffffffffffffffffffffffffffffffffffff16021790555060208201518160000160146101000a8154816bffffffffffffffffffffffff02191690836bffffffffffffffffffffffff16021790555090505050505050565b606061381f82612b71565b50600060086000848152602001908152602001600020805461384090614fc7565b80601f016020809104026020016040519081016040528092919081815260200182805461386c90614fc7565b80156138b95780601f1061388e576101008083540402835291602001916138b9565b820191906000526020600020905b81548152906001019060200180831161389c57829003601f168201915b5050505050905060006138ca613c75565b905060008151036138df578192505050613922565b6000825111156139145780826040516020016138fc929190615c53565b60405160208183030381529060405292505050613922565b61391d84613c8c565b925050505b919050565b6000634906490660e01b7bffffffffffffffffffffffffffffffffffffffffffffffffffffffff1916827bffffffffffffffffffffffffffffffffffffffffffffffffffffffff19161480613981575061398082613cf5565b5b9050919050565b80806139c15750600073ffffffffffffffffffffffffffffffffffffffff168273ffffffffffffffffffffffffffffffffffffffff1614155b15613af55760006139d184612b71565b9050600073ffffffffffffffffffffffffffffffffffffffff168373ffffffffffffffffffffffffffffffffffffffff1614158015613a3c57508273ffffffffffffffffffffffffffffffffffffffff168173ffffffffffffffffffffffffffffffffffffffff1614155b8015613a4f5750613a4d8184612a45565b155b15613a9157826040517fa9fbf51f000000000000000000000000000000000000000000000000000000008152600401613a88919061455d565b60405180910390fd5b8115613af357838573ffffffffffffffffffffffffffffffffffffffff168273ffffffffffffffffffffffffffffffffffffffff167f8c5be1e5ebec7d5bd14f71427d1e84f3dd0314c0f7b2291e5b200ac8c7c3b92560405160405180910390a45b505b836006600085815260200190815260200160002060006101000a81548173ffffffffffffffffffffffffffffffffffffffff021916908373ffffffffffffffffffffffffffffffffffffffff16021790555050505050565b613b58838383613dd7565b613c0c57600073ffffffffffffffffffffffffffffffffffffffff168373ffffffffffffffffffffffffffffffffffffffff1603613bcd57806040517f7e273289000000000000000000000000000000000000000000000000000000008152600401613bc491906145f3565b60405180910390fd5b81816040517f177e802f000000000000000000000000000000000000000000000000000000008152600401613c039291906146a1565b60405180910390fd5b505050565b613c1961136a565b613c4f576040517f8dfc202b00000000000000000000000000000000000000000000000000000000815260040160405180910390fd5b565b613c5b8383613e98565b613c70613c66612c36565b6000858585613431565b505050565b606060405180602001604052806000815250905090565b6060613c9782612b71565b506000613ca2613c75565b90506000815111613cc25760405180602001604052806000815250613ced565b80613ccc84613f91565b604051602001613cdd929190615c53565b6040516020818303038152906040525b915050919050565b60007f80ac58cd000000000000000000000000000000000000000000000000000000007bffffffffffffffffffffffffffffffffffffffffffffffffffffffff1916827bffffffffffffffffffffffffffffffffffffffffffffffffffffffff19161480613dc057507f5b5e139f000000000000000000000000000000000000000000000000000000007bffffffffffffffffffffffffffffffffffffffffffffffffffffffff1916827bffffffffffffffffffffffffffffffffffffffffffffffffffffffff1916145b80613dd05750613dcf8261405f565b5b9050919050565b60008073ffffffffffffffffffffffffffffffffffffffff168373ffffffffffffffffffffffffffffffffffffffff1614158015613e8f57508273ffffffffffffffffffffffffffffffffffffffff168473ffffffffffffffffffffffffffffffffffffffff161480613e505750613e4f8484612a45565b5b80613e8e57508273ffffffffffffffffffffffffffffffffffffffff16613e7683612bf9565b73ffffffffffffffffffffffffffffffffffffffff16145b5b90509392505050565b600073ffffffffffffffffffffffffffffffffffffffff168273ffffffffffffffffffffffffffffffffffffffff1603613f0a5760006040517f64a0ae92000000000000000000000000000000000000000000000000000000008152600401613f01919061455d565b60405180910390fd5b6000613f1883836000612ed5565b9050600073ffffffffffffffffffffffffffffffffffffffff168173ffffffffffffffffffffffffffffffffffffffff1614613f8c5760006040517f73c6ac6e000000000000000000000000000000000000000000000000000000008152600401613f83919061455d565b60405180910390fd5b505050565b606060006001613fa0846140d9565b01905060008167ffffffffffffffff811115613fbf57613fbe614962565b5b6040519080825280601f01601f191660200182016040528015613ff15781602001600182028036833780820191505090505b509050600082602001820190505b600115614054578080600190039150507f3031323334353637383961626364656600000000000000000000000000000000600a86061a8153600a858161404857614047615219565b5b04945060008503613fff575b819350505050919050565b60007f2a55205a000000000000000000000000000000000000000000000000000000007bffffffffffffffffffffffffffffffffffffffffffffffffffffffff1916827bffffffffffffffffffffffffffffffffffffffffffffffffffffffff191614806140d257506140d18261422c565b5b9050919050565b600080600090507a184f03e93ff9f4daa797ed6e38ed64bf6a1f0100000000000000008310614137577a184f03e93ff9f4daa797ed6e38ed64bf6a1f010000000000000000838161412d5761412c615219565b5b0492506040810190505b6d04ee2d6d415b85acef81000000008310614174576d04ee2d6d415b85acef8100000000838161416a57614169615219565b5b0492506020810190505b662386f26fc1000083106141a357662386f26fc10000838161419957614198615219565b5b0492506010810190505b6305f5e10083106141cc576305f5e10083816141c2576141c1615219565b5b0492506008810190505b61271083106141f15761271083816141e7576141e6615219565b5b0492506004810190505b60648310614214576064838161420a57614209615219565b5b0492506002810190505b600a8310614223576001810190505b80915050919050565b60007f01ffc9a7000000000000000000000000000000000000000000000000000000007bffffffffffffffffffffffffffffffffffffffffffffffffffffffff1916827bffffffffffffffffffffffffffffffffffffffffffffffffffffffff1916149050919050565b604051806060016040528060008152602001600015158152602001600073ffffffffffffffffffffffffffffffffffffffff1681525090565b60405180610120016040528060608152602001606081526020016060815260200160608152602001600073ffffffffffffffffffffffffffffffffffffffff16815260200160008152602001600015158152602001600015158152602001600080191681525090565b6000604051905090565b600080fd5b600080fd5b60007fffffffff0000000000000000000000000000000000000000000000000000000082169050919050565b6143818161434c565b811461438c57600080fd5b50565b60008135905061439e81614378565b92915050565b6000602082840312156143ba576143b9614342565b5b60006143c88482850161438f565b91505092915050565b60008115159050919050565b6143e6816143d1565b82525050565b600060208201905061440160008301846143dd565b92915050565b600081519050919050565b600082825260208201905092915050565b60005b83811015614441578082015181840152602081019050614426565b60008484015250505050565b6000601f19601f8301169050919050565b600061446982614407565b6144738185614412565b9350614483818560208601614423565b61448c8161444d565b840191505092915050565b600060208201905081810360008301526144b1818461445e565b905092915050565b6000819050919050565b6144cc816144b9565b81146144d757600080fd5b50565b6000813590506144e9816144c3565b92915050565b60006020828403121561450557614504614342565b5b6000614513848285016144da565b91505092915050565b600073ffffffffffffffffffffffffffffffffffffffff82169050919050565b60006145478261451c565b9050919050565b6145578161453c565b82525050565b6000602082019050614572600083018461454e565b92915050565b6145818161453c565b811461458c57600080fd5b50565b60008135905061459e81614578565b92915050565b600080604083850312156145bb576145ba614342565b5b60006145c98582860161458f565b92505060206145da858286016144da565b9150509250929050565b6145ed816144b9565b82525050565b600060208201905061460860008301846145e4565b92915050565b60008060006060848603121561462757614626614342565b5b60006146358682870161458f565b93505060206146468682870161458f565b9250506040614657868287016144da565b9150509250925092565b6000806040838503121561467857614677614342565b5b6000614686858286016144da565b9250506020614697858286016144da565b9150509250929050565b60006040820190506146b6600083018561454e565b6146c360208301846145e4565b9392505050565b6000819050919050565b6146dd816146ca565b81146146e857600080fd5b50565b6000813590506146fa816146d4565b92915050565b60006020828403121561471657614715614342565b5b6000614724848285016146eb565b91505092915050565b60006020828403121561474357614742614342565b5b60006147518482850161458f565b91505092915050565b600081519050919050565b600082825260208201905092915050565b6000819050602082019050919050565b61478f816144b9565b82525050565b60006147a18383614786565b60208301905092915050565b6000602082019050919050565b60006147c58261475a565b6147cf8185614765565b93506147da83614776565b8060005b8381101561480b5781516147f28882614795565b97506147fd836147ad565b9250506001810190506147de565b5085935050505092915050565b6000602082019050818103600083015261483281846147ba565b905092915050565b614843816143d1565b82525050565b6148528161453c565b82525050565b60608201600082015161486e6000850182614786565b506020820151614881602085018261483a565b5060408201516148946040850182614849565b50505050565b60006060820190506148af6000830184614858565b92915050565b6148be816143d1565b81146148c957600080fd5b50565b6000813590506148db816148b5565b92915050565b600080604083850312156148f8576148f7614342565b5b60006149068582860161458f565b9250506020614917858286016148cc565b9150509250929050565b600060608201905061493660008301866145e4565b61494360208301856143dd565b614950604083018461454e565b949350505050565b600080fd5b600080fd5b7f4e487b7100000000000000000000000000000000000000000000000000000000600052604160045260246000fd5b61499a8261444d565b810181811067ffffffffffffffff821117156149b9576149b8614962565b5b80604052505050565b60006149cc614338565b90506149d88282614991565b919050565b600067ffffffffffffffff8211156149f8576149f7614962565b5b614a018261444d565b9050602081019050919050565b82818337600083830152505050565b6000614a30614a2b846149dd565b6149c2565b905082815260208101848484011115614a4c57614a4b61495d565b5b614a57848285614a0e565b509392505050565b600082601f830112614a7457614a73614958565b5b8135614a84848260208601614a1d565b91505092915050565b60008060008060808587031215614aa757614aa6614342565b5b6000614ab58782880161458f565b9450506020614ac68782880161458f565b9350506040614ad7878288016144da565b925050606085013567ffffffffffffffff811115614af857614af7614347565b5b614b0487828801614a5f565b91505092959194509250565b600067ffffffffffffffff821115614b2b57614b2a614962565b5b614b348261444d565b9050602081019050919050565b6000614b54614b4f84614b10565b6149c2565b905082815260208101848484011115614b7057614b6f61495d565b5b614b7b848285614a0e565b509392505050565b600082601f830112614b9857614b97614958565b5b8135614ba8848260208601614b41565b91505092915050565b60006bffffffffffffffffffffffff82169050919050565b614bd281614bb1565b8114614bdd57600080fd5b50565b600081359050614bef81614bc9565b92915050565b60008060008060008060008060006101208a8c031215614c1857614c17614342565b5b60008a013567ffffffffffffffff811115614c3657614c35614347565b5b614c428c828d01614b83565b99505060208a013567ffffffffffffffff811115614c6357614c62614347565b5b614c6f8c828d01614b83565b98505060408a013567ffffffffffffffff811115614c9057614c8f614347565b5b614c9c8c828d01614b83565b97505060608a013567ffffffffffffffff811115614cbd57614cbc614347565b5b614cc98c828d01614b83565b96505060808a013567ffffffffffffffff811115614cea57614ce9614347565b5b614cf68c828d01614b83565b95505060a0614d078c828d016144da565b94505060c0614d188c828d01614be0565b93505060e0614d298c828d016148cc565b925050610100614d3b8c828d016148cc565b9150509295985092959850929598565b600082825260208201905092915050565b6000614d6782614407565b614d718185614d4b565b9350614d81818560208601614423565b614d8a8161444d565b840191505092915050565b614d9e816146ca565b82525050565b6000610120830160008301518482036000860152614dc28282614d5c565b91505060208301518482036020860152614ddc8282614d5c565b91505060408301518482036040860152614df68282614d5c565b91505060608301518482036060860152614e108282614d5c565b9150506080830151614e256080860182614849565b5060a0830151614e3860a0860182614786565b5060c0830151614e4b60c086018261483a565b5060e0830151614e5e60e086018261483a565b50610100830151614e73610100860182614d95565b508091505092915050565b60006020820190508181036000830152614e988184614da4565b905092915050565b614ea9816146ca565b82525050565b6000610120820190508181036000830152614eca818c61445e565b90508181036020830152614ede818b61445e565b90508181036040830152614ef2818a61445e565b90508181036060830152614f06818961445e565b9050614f15608083018861454e565b614f2260a08301876145e4565b614f2f60c08301866143dd565b614f3c60e08301856143dd565b614f4a610100830184614ea0565b9a9950505050505050505050565b60008060408385031215614f6f57614f6e614342565b5b6000614f7d8582860161458f565b9250506020614f8e8582860161458f565b9150509250929050565b7f4e487b7100000000000000000000000000000000000000000000000000000000600052602260045260246000fd5b60006002820490506001821680614fdf57607f821691505b602082108103614ff257614ff1614f98565b5b50919050565b7f46656520746f6f20686967680000000000000000000000000000000000000000600082015250565b600061502e600c83614412565b915061503982614ff8565b602082019050919050565b6000602082019050818103600083015261505d81615021565b9050919050565b7f4e6f7420666f722073616c650000000000000000000000000000000000000000600082015250565b600061509a600c83614412565b91506150a582615064565b602082019050919050565b600060208201905081810360008301526150c98161508d565b9050919050565b7f496e73756666696369656e74207061796d656e74000000000000000000000000600082015250565b6000615106601483614412565b9150615111826150d0565b602082019050919050565b60006020820190508181036000830152615135816150f9565b9050919050565b7f43616e6e6f7420627579206f776e204e46540000000000000000000000000000600082015250565b6000615172601283614412565b915061517d8261513c565b602082019050919050565b600060208201905081810360008301526151a181615165565b9050919050565b7f4e487b7100000000000000000000000000000000000000000000000000000000600052601160045260246000fd5b60006151e2826144b9565b91506151ed836144b9565b92508282026151fb816144b9565b91508282048414831517615212576152116151a8565b5b5092915050565b7f4e487b7100000000000000000000000000000000000000000000000000000000600052601260045260246000fd5b6000615253826144b9565b915061525e836144b9565b92508261526e5761526d615219565b5b828204905092915050565b6000615284826144b9565b915061528f836144b9565b92508282039050818111156152a7576152a66151a8565b5b92915050565b60006152b8826144b9565b91506152c3836144b9565b92508282019050808211156152db576152da6151a8565b5b92915050565b60006060820190506152f6600083018661454e565b61530360208301856145e4565b615310604083018461454e565b949350505050565b7f4e487b7100000000000000000000000000000000000000000000000000000000600052603260045260246000fd5b6000615352826144b9565b91507fffffffffffffffffffffffffffffffffffffffffffffffffffffffffffffffff8203615384576153836151a8565b5b600182019050919050565b7f4e6f206665657320746f20776974686472617700000000000000000000000000600082015250565b60006153c5601383614412565b91506153d08261538f565b602082019050919050565b600060208201905081810360008301526153f4816153b8565b9050919050565b7f4e6f7420746f6b656e206f776e65720000000000000000000000000000000000600082015250565b6000615431600f83614412565b915061543c826153fb565b602082019050919050565b6000602082019050818103600083015261546081615424565b9050919050565b7f4e6f74206c697374656420666f722073616c6500000000000000000000000000600082015250565b600061549d601383614412565b91506154a882615467565b602082019050919050565b600060208201905081810360008301526154cc81615490565b9050919050565b7f5072696365206d7573742062652067726561746572207468616e203000000000600082015250565b6000615509601c83614412565b9150615514826154d3565b602082019050919050565b60006020820190508181036000830152615538816154fc565b9050919050565b7f546f6b656e20646f6573206e6f74206578697374000000000000000000000000600082015250565b6000615575601483614412565b91506155808261553f565b602082019050919050565b600060208201905081810360008301526155a481615568565b9050919050565b600081905092915050565b60006155c182614407565b6155cb81856155ab565b93506155db818560208601614423565b80840191505092915050565b60008160601b9050919050565b60006155ff826155e7565b9050919050565b6000615611826155f4565b9050919050565b6156296156248261453c565b615606565b82525050565b600061563b82856155b6565b91506156478284615618565b6014820191508190509392505050565b7f50726f6d707420616c7265616479206578697374730000000000000000000000600082015250565b600061568d601583614412565b915061569882615657565b602082019050919050565b600060208201905081810360008301526156bc81615680565b9050919050565b7f526f79616c747920746f6f206869676800000000000000000000000000000000600082015250565b60006156f9601083614412565b9150615704826156c3565b602082019050919050565b60006020820190508181036000830152615728816156ec565b9050919050565b60008190508160005260206000209050919050565b60006020601f8301049050919050565b600082821b905092915050565b6000600883026157917fffffffffffffffffffffffffffffffffffffffffffffffffffffffffffffffff82615754565b61579b8683615754565b95508019841693508086168417925050509392505050565b6000819050919050565b60006157d86157d36157ce846144b9565b6157b3565b6144b9565b9050919050565b6000819050919050565b6157f2836157bd565b6158066157fe826157df565b848454615761565b825550505050565b600090565b61581b61580e565b6158268184846157e9565b505050565b5b8181101561584a5761583f600082615813565b60018101905061582c565b5050565b601f82111561588f576158608161572f565b61586984615744565b81016020851015615878578190505b61588c61588485615744565b83018261582b565b50505b505050565b600082821c905092915050565b60006158b260001984600802615894565b1980831691505092915050565b60006158cb83836158a1565b9150826002028217905092915050565b6158e482614407565b67ffffffffffffffff8111156158fd576158fc614962565b5b6159078254614fc7565b61591282828561584e565b600060209050601f8311600181146159455760008415615933578287015190505b61593d85826158bf565b8655506159a5565b601f1984166159538661572f565b60005b8281101561597b57848901518255600182019150602085019450602081019050615956565b868310156159985784890151615994601f8916826158a1565b8355505b6001600288020188555050505b505050505050565b600060808201905081810360008301526159c7818761445e565b905081810360208301526159db818661445e565b90506159ea60408301856145e4565b81810360608301526159fc818461445e565b905095945050505050565b7f496e76616c696420616464726573730000000000000000000000000000000000600082015250565b6000615a3d600f83614412565b9150615a4882615a07565b602082019050919050565b60006020820190508181036000830152615a6c81615a30565b9050919050565b7f416c7265616479206c6973746564000000000000000000000000000000000000600082015250565b6000615aa9600e83614412565b9150615ab482615a73565b602082019050919050565b60006020820190508181036000830152615ad881615a9c565b9050919050565b600081519050919050565b600082825260208201905092915050565b6000615b0682615adf565b615b108185615aea565b9350615b20818560208601614423565b615b298161444d565b840191505092915050565b6000608082019050615b49600083018761454e565b615b56602083018661454e565b615b6360408301856145e4565b8181036060830152615b758184615afb565b905095945050505050565b600081519050615b8f81614378565b92915050565b600060208284031215615bab57615baa614342565b5b6000615bb984828501615b80565b91505092915050565b6000615bdd615bd8615bd384614bb1565b6157b3565b6144b9565b9050919050565b615bed81615bc2565b82525050565b6000606082019050615c0860008301866145e4565b615c156020830185615be4565b615c2260408301846145e4565b949350505050565b6000604082019050615c3f60008301856145e4565b615c4c602083018461454e565b9392505050565b6000615c5f82856155b6565b9150615c6b82846155b6565b9150819050939250505056fea264697066735822122049ed2c9e7eb0bdf92906344dd152421f8d0063de3e4007511c5a26fbde6733b864736f6c63430008140033",
  "linkReferences": {},
  "deployedLinkReferences": {}
}